S0120000726E5F7261385F6673642E737265632C
S31502000000E024092221B90502EDB605021DB9050251
S315020000101DB905021DB905021DB905021DB9050264
S31502000020000000000000000000000000DD7D050267
S315020000301DB9050200000000F57D05025D7E050280
S31502000040B99705024D990502719A0502559B05025B
S31502000050B99D0502D5A00502D5AC050235AA050251
S31502000060B9AA0502A98C0502FD8C0502518D05026D
S31502000070358E0502998E0502ED8E050200000000FE
S315020000800000000000000000000000000000000068
S315020000900000000000000000000000000000000058
S315020000A00000000000000000000000000000000048
S315020000B00000000000000000000000000000000038
S315020000C00000000000000000000000000000000028
S315020000D00000000000000000000000000000000018
S315020000E00000000000000000000000000000000008
S315020000F000000000000000000000000000000000F8
S3150200010000000000000000000000000000000000E7
S3150200011000000000000000000000000000000000D7
S3150200012000000000000000000000000000000000C7
S3150200013000000000000000000000000000000000B7
S3150200014000000000000000000000000000000000A7
S315020001500000000000000000000000000000000097
S315020001600000000000000000000000000000000087
S315020001700000000000000000000000000000000077
S315020001800000000000000000000000000000000067
S315020001900000000000000000000000000000000057
S315020001A00000000000000000000000000000000047
S315020001B00000000000000000000000000000000037
S315020001C00348044B834202D0034B03B118477047DE
S315020001D0A80D0022A80D002200000000064B0749C8
S315020001E0C91A891048BF0131491003D0044B0BB11B
S315020001F001481847704700BFA80D0022A80D00222B
S315020002000000000010B5064C237843B9FFF7D8FF6B
S31502000210044B13B10448AFF300800123237010BDD1
S31502000220D80D002200000000D031090208B5054BA6
S315020002301BB105490548AFF30080BDE80840FFF74A
S31502000240CDBF00BF00000000DC0D0022D031090244
S3150200025001200DF02DBF00BF08B50649064859F02A
S3150200026045FE00B100BE044859F0E2FD00B100BEF1
S3150200027008BD00BFD81909021C170422002200B5C6
S31502000280037983B001929A1E012A04D9012B19D04F
S3150200029003B05DF804FB0F4B012219680E4801AB4F
S315020002A05DF0EAFB0028F3D0019B002BF0D04FF063
S315020002B080520A4B5A60BFF34F8FBFF36F8F03B062
S315020002C05DF804FB034B02221968034801AB5DF09B
S315020002D0D3FBE7E72C11042255BF050200ED00E02F
S315020002E030B50C46944685B064BA0023032203A9AE
S315020002F0ADF80C408DF80EC059F096F8044610B1D0
S31502000300204605B030BD4FF47A7509482346006889
S315020003100122032100955BF029FDC307F0D410F0FA
S31502000320020F0CBF14241224204605B030BD00BFB4
S315020003302C1104222DE9F0410C4684B064BA16460B
S315020003400123022203A9ADF80C40054659F06CF8C8
S31502000350044618B1204604B0BDE8F0814FF47A771E
S31502000360DFF8488003460321D8F8000001220097EF
S315020003705BF0FCFCC10712D5234601223146284612
S3150200038059F022F804460028E4D103460122D8F89F
S315020003900000032100975BF0E9FCC307DAD4820769
S315020003A001D51224D6E71424D4E700BF2C11042267
S315020003B02DE9F0430C461D4685B064BA1746012363
S315020003C0022203A9ADF80C402E46054659F02CF838
S315020003D0044618B1204605B0BDE8F0834FF47A789A
S315020003E0DFF84C9003460321D9F800000122CDF82C
S315020003F000805BF0BBFCC10713D523463246394663
S31502000400284658F0E1FF04460028E3D103460122BC
S31502000410D9F800000321CDF800805BF0A7FCC307E2
S31502000420D8D4820701D51224D4E71424D2E700BF18
S315020004302C11042200B50A4B83B0186801A95CF09E
S315020004405BF848B1019B3BB14FF08052054B5A60B5
S31502000450BFF34F8FBFF36F8F03B05DF804FB00BF8E
S315020004607811042200ED00E010B51D4C002240F682
S315020004700121204658F0ECFD042240F20A512046A2
S3150200048058F00AFE012164205BF0F0F8002240F2E7
S315020004900A51204658F0DCFD012164205BF0E6F8A3
S315020004A0012240F60121204658F0D2FD4FF47A711E
S315020004B00A205BF0DBF8002240F20A51204658F08F
S315020004C0C7FD4FF47A7132205BF0D0F82046BDE8C2
S315020004D010404FF4804240F20A5158F0DDBD00BF91
S315020004E07C11042210B5044682B0FFF7BDFF01223B
S315020004F05D21204658F04AFF08B102B010BD042320
S3150200050048F2401120466A46FFF752FF0028F4D10E
S315020005109DF90000393818BF012002B010BD00BF96
S315020005202DE9F043054683B00C46FFF79DFF0122F5
S315020005305D21284658F02AFF10B103B0BDE8F083CA
S31502000540042348F2401128466A46FFF731FF002885
S31502000550F3D19DF90030392B3DD14FF0B80E074645
S315020005604EF001E01D4A02F1010812F8013F3B4438
S31502000570DFB20FF007C04646C6F5004908F1B808D3
S3150200058009F1470909EB0601284616F8012B89B23B
S31502000590FFF7A6FE0028D0D14645F3D17A4248F2AB
S315020005A0FF012846D2B2FFF79BFE0028C5D10122E1
S315020005B04FF401412846FFF793FE0028BDD10246BB
S315020005C048F240012846FFF78BFE0028B5D12046A7
S315020005D059F0C2FBB1E71220AFE700BFD7EA060225
S315020005E070B545F049FC45F04DFD282226490446E2
S315020005F048F02CF8002320461A46022148F0D4F887
S315020006002046102146F0D0FF002220461F494BF01B
S3150200061083FE204607F032F805461D4E1D4907F0B7
S3150200062039F8002328460A22072148F0BDF800229D
S31502000630314628464BF070FE204607F01FF8164951
S31502000640054607F027F8002328461A46092148F0EE
S31502000650ABF80022314628464BF05EFE204607F0F4
S315020006600DF804460D4907F015F820466FF0090209
S315020006700821002348F098F831462046BDE870402C
S3150200068000224BF049BE00BF64000020540E002237
S31502000690480E002290EB060294EB060298EB060245
S315020006A070B5154D82B016F011FB2B687BB19C68B4
S315020006B06CB101266C6064232068C8220A21009668
S315020006C045F004FD237933400BD00123EB8145F03D
S315020006D0D3FB45F0D7FC012102B0BDE8704046F0DD
S315020006E063BF0D220549206847F00EFE2379334386
S315020006F023710123EB81EAE7200E0022DD070002C7
S31502000700044A1368082B04DC03490133136041F8D9
S315020007102300704704000022F80D0022054A1368E0
S31502000720002B05DB0448591E50F823001160704760
S315020007300020704704000022F80D0022E0B170B5D7
S315020007400E4D04462E683EB1334601E09B681BB14E
S315020007501A68A242FAD170BD0C2068F0A3FA0028EA
S31502000760F9D00279AB8922F00102013304600271E9
S3150200077086602860AB8170BD704700BF200E0022E4
S31502000780F0B5144E83B0346854B105461F4684460C
S3150200079018B907E0BCF1010C04D0A468002CF9D109
S315020007A003B0F0BD746013462068C822009745F076
S315020007B08DFC237913F0010302D0F58103B0F0BD5D
S315020007C00D220549206847F09FFD237943F0010376
S315020007D02371F2E7200E0022DD07000210B52EF08B
S315020007E06FFF2EF0A1FF01281AD0022805D02EF0A5
S315020007F067FFBDE810402EF0C1BF134C0023E0890D
S315020008006422012898BFA0890221013880B2E081C2
S31502000810FFF7B6FF2EF054FFBDE810402EF0AEBF34
S31502000820094C0121A389E289013B9A42BCBF0132EC
S3150200083090B200236422E081FFF7A2FF2EF040FF70
S31502000840BDE810402EF09ABF200E002208B500F037
S31502000850ABF8FFF773FF00F029F8FFF76FFF00F020
S31502000860D3F9FFF76BFF00F0EFF8FFF767FFFFF72B
S31502000870B7FE45F001FB45F005FC012146F048FEB6
S31502000880084A13685360186845F034FE41F288310D
S315020008900022054816F0ECF9BDE80840012116F0E1
S315020008A04DBA00BF200E0022A106000270B500203C
S315020008B082B046F01FFE00264FF47F430446ADF891
S315020008C004308DF80660324601994CF067FA2046EC
S315020008D006F0D4FE0546064906F0DCFE28463346F7
S315020008E03246092147F060FF204602B070BD00BFC4
S315020008F09CEB0602F0B583B014F0EEF90146002037
S3150200090005F0B2FC064645F0B7FA45F0A3FBFFF741
S31502000910F7FE002046F0EEFD04460CF04DF80A23E1
S3150200092005461A46012147F03FFF284606F0A6FE75
S315020009301349074606F0AEFE002338461A46092139
S3150200094047F032FF002307220E49284647F0DCFC17
S31502000950204606F093FE054632460B4906F0D6FEC1
S3150200096028460A230022022147F01EFF0023C8223E
S3150200097005212046009345F0A9FB03B0F0BD00BF58
S31502000980A8EB06028D090002B0EB060200B583B0A1
S31502000990FFF7C4FE28B10023C8220621009345F0C2
S315020009A095FB03B05DF804FB2DE9F043002089B006
S315020009B046F0A0FD814606F061FE0446184906F09F
S315020009C069FE0A2300220221204647F0EDFE484630
S315020009D005F010FC0546134A134947F037FE142367
S315020009E000220921284647F0DFFE0024DFF8448072
S315020009F00E4F0F4E013422464146684669F02EFCE0
S31502000A006A463946284605F005FC00230722314688
S31502000A1047F07AFC052CEDD1484609B0BDE8F083D3
S31502000A20BCEB06025000002064000020D4EB060254
S31502000A30F5080002C8EB0602C9B205F0C9BF00BF3D
S31502000A4047F0D4BDFFFFFFFF2DE9F04F2DED088BD8
S31502000A50614AB5B002AB07CA03C300201A7046F05A
S31502000A6049FD054606F00AFE04465C4906F078FE94
S31502000A70642300220221204647F096FE584815F0CC
S31502000A8003F95849564815F0A3FB0022204654495B
S31502000A904BF042FC284606F0F1FD0446524A534901
S31502000AA006F034FE6FF0630300220521204647F06C
S31502000AB07BFE4F4815F0E8F84E494D4815F088FB85
S31502000AC005AE002220464A494BF026FC6FF0270865
S31502000AD00027B146284605F067FF04464246002332
S31502000AE0092149F8040B47F05FFE07EB4703D033B1
S31502000AF06B4413F8C72C13F8C81C13F8C63C41EA1A
S31502000B00022141EA0341204621F07F4105F058FFC8
S31502000B100137204605F068FF032F08F12808D9D1CE
S31502000B204FF47A749FED24AB9FED25BB9FED268B88
S31502000B309FED279BDFF8C4B0DFF8C4A0DFF8C490AE
S31502000B400DF19C08019508A813F00CF94FF0FF3738
S31502000B504FF4FA724FF4FA7356F8045B08A8CDE91B
S31502000B601623CDE918478DED11BFCDF824B0CDF887
S31502000B7040A0089513F010F91EA813F0F3F81E4BC7
S31502000B802E9426934FF47A731EA8A4F5FA7488ED70
S31502000B90009F1E952F97CDF87C902D9313F0FCF8AD
S31502000BA014F5FA7FCFD1019D284635B0BDEC088BEE
S31502000BB0BDE8F08FAFF30080D8FFFFFF0000008092
S31502000BC028000000F4010000500000000000008030
S31502000BD0FF000000E803000058110702D8EB0602E6
S31502000BE03C0E0022F49A0702E0EB06028CF506029E
S31502000BF0300E0022D05C0702C93F0102410A000200
S31502000C005D390102390A000230B5002083B046F090
S31502000C1071FCFF234FF47F4104468DF80630ADF890
S31502000C200410002201994CF0B9F8204606F026FD80
S31502000C300649054606F02EFD0023284609211A46D6
S31502000C4047F0B2FD204603B030BD00BFF0EB06020E
S31502000C5070B508460C464CF0DDFB064647F076FEBC
S31502000C600546304647F078FE29460246204647F0BA
S31502000C70EDFC012120462EF063FC204646F03AFCAC
S31502000C80054620464CF014FA45F026F902460F4E68
S31502000C9002EBD27231462846521047F0D7FC28465C
S31502000CA000212EF04DFC0223002128461A462EF082
S31502000CB053FC204646F01EFC044601212EF064FC3D
S31502000CC031462046BDE8704047F0ECBC6400002087
S31502000CD010B50C460C4A2046114647F0B7FC0023D5
S31502000CE020461A46094947F00FFB2046802146F066
S31502000CF00FFC2046032149F065FB2046BDE8104063
S31502000D00032149F06DBB00BF64000020110D0002F3
S31502000D102DE9F04383B0054613F0E0FF044628466A
S31502000D2013F0D8FF0B2C02D003B0BDE8F0830746C0
S31502000D302EF0C6FC10B1037A012BF5D0384647F0E7
S31502000D4011FE0646384647F04BFE054669463846CA
S31502000D5049F01EFDDDE9002306EBD67102EB6108C0
S31502000D6005EBD57203EB620998FBF6F899FBF5F9E8
S31502000D70002406FB08F805FB09F938464CF08EFB01
S31502000D80A04219D9214638464CF048FB054647F0A1
S31502000D9045FD0646284647F06FFDB04504F10104BD
S31502000DA0EBD18145E9D1FD6200222021384695F832
S31502000DB02C4047F087FA00E00F242146384649F0D6
S31502000DC0F1FA03B0BDE8F08310B50C46044A20469A
S31502000DD0114647F03BFC2046BDE8104049F09EBA5A
S31502000DE064000020704700BF486B10B50C4618B16E
S31502000DF011F07CFF00236363A06B18B111F076FF3C
S31502000E000023A363206B18B111F070FF0023236344
S31502000E1010BD00BF2DE9F04F2DED048B5A2297B07D
S31502000E20002104464BF044FB05465C220021204685
S31502000E3012954BF03DFB8146E06AE76CCDF848908F
S31502000E4006F014FD694B39461B6883469847684B82
S31502000E500BEB00021B6800218046104602930392A8
S31502000E6098470D280646D5F80CA000F2BB8042F240
S31502000E700143C34013F0010F0CBF0146202100229B
S31502000E80284630F0E7FE394610AA0746E06A06F021
S31502000E90EFFCE36A1846019306F0E8FC019B024662
S31502000EA0002118464BF082FEE16A109B4A69134400
S31502000EB0CA693B44934228DD94F8701011F0080188
S31502000EC023D1032821D0119BD1444B441091019187
S31502000ED01193002E00F08880464B03981B689847B2
S31502000EE080440199029B0BEB080098470D280146A6
S31502000EF006D842F20143C34013F0010F18BF202166
S31502000F000022284630F0A6FE0746C4F8608030224A
S31502000F104FF4C02120464BF0CBFA054610224FF47F
S31502000F20C021204612954BF0C3FA034611224FF414
S31502000F30C021204603EB050912934BF0B9FA064687
S31502000F4012224FF4C021204612964BF0B1FA034604
S31502000F504FF4C0211322204603EB050B12934BF0EC
S31502000F60A7FAA046109B2E44A3EB0B020C92119AF1
S31502000F70054416445644A2EB0902013E1D440D9255
S31502000F800F963D44E36A013D0E951290D3E905237F
S31502000F90CDE90823CDE90A239DED085FB8ED147F5C
S31502000FA026EF44689DED0C9F12A981ED007F204635
S31502000FB047F06AFF88ED009FE36A12A9D3E9052389
S31502000FC0CDE90532049207939DED047F26EF48682A
S31502000FD0204681ED007F47F057FF17B0BDEC048B2A
S31502000FE0BDE8F08F01464AE7202189E72021070262
S31502000FF0282107023021070290F864C00CF0010292
S315020010008A421CD00A1E18BF012210B562F3000CD8
S31502001010C46A88B080F864C0D4E90523CDE90132F8
S31502001020009203939DED005F90ED147F26EF4468D6
S3150200103004A981ED007F47F027FF08B010BD704775
S31502001040F0B5642297B04FF4C02105464BF030FA52
S31502001050009058B92846124912F0F6FE95F8643007
S3150200106043F0010385F8643017B0F0BD04466846C4
S3150200107012F078FE0A4B0021019301274FF0FF334D
S315020010804FF00046074A6846CDE9097600950C946A
S315020010900F940B910892119312F07EFE17B0F0BDD9
S315020010A0F90F00020540010270B5054613F016FE5F
S315020010B00446284613F00EFE2E3CA4B206464CF019
S315020010C0A9F9012C00D970BD05460021304606F06B
S315020010D0E1FA2846FFF79EFE2846BDE87040FFF774
S315020010E0AFBF00BF2DE9F04F814687B0C06A06F058
S315020010F0BDFB254B1B68984780B3D9F838A0074635
S31502001100BAF1000F2DD0504611F0A2FA00FB07FBF0
S3150200111006460BF1010011F0CDFD0025804604467E
S31502001120204632465146013511F0FAF9AF423444AF
S31502001130F6D1002308F80B304146D9F82C0006F008
S31502001140A9FA404611F0D2FD4846104912F07CFE3B
S31502001150484607B0BDE8F04FFFF75CBE07B0BDE8F2
S31502001160F08F51465A2248464BF0A2F9534642F2B4
S3150200117022026946009030F063FD054A054B0028BD
S3150200118014BF92469A46BEE718210702E50D0002F1
S315020011901CEC060218EC0602006890F870305B0739
S315020011A000D47047FFF79EBF30B5436C044697B034
S315020011B02BB990F870305B0719D417B030BD68466A
S315020011C012F0D0FD00254FF0004101220A4B0B48D8
S315020011D000940193646C0A4B08906846CDE9095164
S315020011E00C940B92049312F0D7FD17B030BD17B0D2
S315020011F0BDE83040FFF776BFE50D0002054001026B
S3150200120099110002C36C8B4279D0F0B53C4B83B086
S315020012100446C06A0D461E6806F028FBB047002D3C
S3150200122005EB0003B8BF1D46A84206463EDA204635
S31502001230E66449F073F85A22002120464BF038F949
S31502001240054631466A46E06A009506F011FB2046DD
S31502001250EE68019D49F000F985424ADB204647F0D7
S31502001260BFFB019B07462046F51849F0F5F82B1AF5
S31502001270BB4230DC2046009D49F06EF9854224DBF4
S31502001280204647F06FFB009B07462046F51849F0BB
S3150200129063F92B1ABB4210DC009B2046A364FFF7BE
S315020012A0CFFE2046FFF7B6FD03B0F0BD47F6FF734B
S315020012B09D420CBF06462E46B9E700990122C91B7C
S315020012C02046314449F0B8FBE6E701222046009960
S315020012D049F0B2FBD4E701990122C91B20463144E9
S315020012E049F0C0FB2046009D49F036F98542C7DA2F
S315020012F0EBE701222046019949F0B4FBAEE77047BD
S315020013001821070270B50120002540F2DC5691F83B
S31502001310643091F8702023F0030343F0030322F0B4
S315020013200E0281F8643081F87020C1E90D55C1E9D9
S315020013300F55C1E90B554E64C8648D6408460C46C8
S3150200134006F09CF91049E06247F0ACF9E06A0F49F1
S3150200135006F0A0F92B462A460D49E06A46F0D4FF6C
S3150200136020464FF4806146F0D3F820464FF40061E0
S3150200137046F01AF920462946FFF744FF2046BDE803
S315020013807040FFF75DBE00BF6400002068020702DE
S31502001390A910000290F8643061F3410380F86430CA
S315020013A0704700BF90F87030C3F3C0028A422CD057
S315020013B070B5044661F3C303C06A0D4684F8703003
S315020013C0A9B16FF0404147F06DF91049E06A002279
S315020013D04BF09CFC6FF04041204647F07BF900231E
S315020013E02046BDE870401A46194649F051BB0749E6
S315020013F047F058F92A462946E06A4BF087FC2A4606
S31502001400022120464BF026F9E9E7704764000020E6
S3150200141090F870305B0701D5406B7047C06A06F0E2
S3150200142025BA00BFC06C704790F87000C0F3C000C8
S31502001430704700BF38B50446C06A06F0A1FB4FF6F6
S31502001440FF7398420BD0E06A4FF6FF7106F006FA78
S31502001450E06A4FF6FF71BDE8384006F003BA05466A
S31502001460E06A06F08FFBA842EDD138BD01B3F0B5B4
S3150200147090F8703007465A070C4683B049D4FB6B86
S31502001480BBB1002294F9003001927BB1324A334B50
S3150200149016681D6801A92046B047A8470146384686
S315020014A000F07EF8019BE356002BF3D103B0F0BDAA
S315020014B0FEE73B6C002BE4D12146384600F052F899
S315020014C00128F3D1D7E90B0333B106F0CFF990F92E
S315020014D00030002B3BD0F86A2246F96C06F054FB2A
S315020014E03846FFF7A7FF97F870305B0717D41C4BF7
S315020014F020461B68FC6C9847014638462144FFF794
S3150200150081FE00222021384603B0BDE8F04046F0B5
S31502001510D9BEFFF7E7FDFB6B002BB2D1C9E7786BAB
S3150200152011F096F80546204611F092F80146294434
S31502001530786B013111F0E4FB786338B12246F96C1D
S3150200154015F0E8F93846FFF72FFED0E7FEE73846F2
S3150200155047F0C6FCBFE700BF282107022C2107027D
S315020015601821070270B50C4600230C4D2121224694
S3150200157006462B6046F0A6FE286830B190F9003088
S315020015804BB1214611F078F808B9012070BD3046FA
S315020015902968FFF76BFF002070BD00BF600E0022B6
S315020015A0F0B590F87020044610070B4685B003D5B7
S315020015B00A2925D00D2923D00025204602A9029307
S315020015C000930395FFF7CEFF012819D1384B294620
S315020015D01E686846B047236C0546002B52D1E06B65
S315020015E080B190F900306BB10023019305E001A9A7
S315020015F0B047854206D0E06B019BC356002BF6D15D
S3150200160005B0F0BD94F870305A0737D4D4E90B030D
S3150200161033B106F02BF990F90030002B3FD0E06A87
S31502001620E16C02AA06F0B0FA2046FFF703FF94F82F
S3150200163070305B0715D5606B11F00AF8054602A8F3
S3150200164011F006F801462944606B013111F058FB8E
S31502001650606390B1E16C02AA15F05CF92046FFF7CF
S31502001660A3FDE16C20460131FFF7CCFD00222021CB
S31502001670204646F027FE05B0F0BDFEE72046FFF7FE
S3150200168031FDC3E70B4A94F87030126859071746C2
S3150200169009D5606BB847236C9842A0D3B0E72046C1
S315020016A047F01EFCBBE7E06A06F0E0F8F2E700BF8F
S315020016B02821070218210702C36C03B970477F234A
S315020016C030B583B001A90446ADF80430FFF74AFFEE
S315020016D00128054601D003B030BDE06A06F0C6F81F
S315020016E02A460546E16C013915F052F92946E06AA7
S315020016F005F0D0FF2046FFF79DFE236B2BB1E06A73
S3150200170006F0B4F890F900300BB394F87030E16C3F
S315020017105B0710D501390122606B15F039F9656B4B
S31502001720284610F095FF01462846013111F0E8FAE5
S3150200173060B1E16C606320460139FFF763FD002268
S315020017402021204646F0BEFD03B030BDFEE720460E
S3150200175047F0C6FBD9E700BF002950D0F0B50746CF
S3150200176083B00C46FFF766FEFB6B002B48D02D4973
S31502001770F86A05F08FFF47F6FF713846FFF742FD1C
S3150200178097F87030590702D500227B6B1A70002237
S3150200179094F9003001927BB1234A244B16681D68E6
S315020017A001A92046B047A84701463846FFF7F8FE8A
S315020017B0019BE356002BF3D13B6B2BB1F86A06F083
S315020017C055F890F900304BB397F870305A070ED59A
S315020017D0786B11F08BFA204610F064FF7863E0B163
S315020017E097F870305B0702D53846FFF77BFC00227C
S315020017F02021384603B0BDE8F04046F063BDFEE75F
S315020018003B6C002BB3D12146F86A05F043FF47F63D
S31502001810FF713846FFF7F6FCCEE7FEE7384647F09B
S315020018205FFBD1E768020702282107022C21070283
S31502001830C16C0131FFF7E6BCC16C01B970470139D1
S31502001840FFF7E0BC30B5054685B0C16C02AAC06A96
S3150200185006F00EF85C22002128464AF029FE0446CC
S315020018605A220021284601944AF022FE0346A96C18
S31502001870039A0291D968E86A0C440134144401932C
S31502001880039447F069F8844201DB05B030BD0122BA
S3150200189002A9E86A06F0A6F801462846AC6CFFF7EC
S315020018A0B1FCAC6405B030BDF0B5044685B0C16C80
S315020018B002AAC06A05F0DCFF5C22002120464AF03B
S315020018C0F7FD05465A220021204601954AF0F0FD11
S315020018D00646F768039BA06C3D44013D5B1B012253
S315020018E002A90290E06A0393019606F07BF801468C
S315020018F02046A56CFFF786FCA56405B0F0BD00BFC7
S315020019002DE9F047B248BCB00D4646F06BFC012803
S3150200191002D03CB0BDE8F087284613F0DFF9044652
S31502001920284613F0D7F9631E04461C2BF1D801A2F0
S3150200193052F823F0A9190002A9190002A9190002F6
S3150200194013190002131900021319000213190002D7
S31502001950A919000213190002131900021319000231
S3150200196013190002131900028B1C0002131900023C
S31502001970811C000213190002131900021319000236
S315020019801319000213190002131900021319000297
S315020019901319000213190002D91B000213190002BF
S315020019A013190002B11A00022DF08AFE044600281D
S315020019B0AFD0284613F08EF990F8643006469F079A
S315020019C0A7D520462DF08EFE0228A2D020462DF065
S315020019D089FE04289DD0F06A20A946F015FF20460C
S315020019E004A92DF08BFE204606A92DF0B9FE049B14
S315020019F0002B8EDB059A002A8BDBDDE920011B1A00
S31502001A00521A2846CDE90A3213F068F90446F06AFA
S31502001A1046F09CFF0A9B0122002BF56AC0F29881D0
S31502001A20984200F3B78147F6FF7796F87030980729
S31502001A3003F0010140F18581002940F09981002AD5
S31502001A4040F08281012C7FF464AF4FF6FF7243F0BF
S31502001A5001034FF440713046B76686F87030F2667D
S31502001A6045F0A2FD39463046FFF7CCFB96F87030BA
S31502001A70D9077FF54EAFD6E91A218A426B6C40F23E
S31502001A806981994202D1AB6C9A4205D06964B36E00
S31502001A903046AB6447F024FA032C02D0082C7FF4BC
S31502001AA038AF96F8703023F0010386F8703030E7CD
S31502001AB0284613F00FF90446284646F09BFC0646D4
S31502001AC0E06A05F0D3FE94F864300546DB077FF53D
S31502001AD020AF20A843F0C2FA4FF4C021204620AA24
S31502001AE045F050FFE36A94ED147FD3E90523CDE96F
S31502001AF00023CDE902239DED005F26EF446806AF81
S31502001B0087ED007F30463A4620A943F003FB302298
S31502001B104FF4C02120464AF0CBFC824612224FF4F3
S31502001B20C0212046CDF828A04AF0C2FC03464FF059
S31502001B3000094FF4C021102220460AEB03080A933B
S31502001B404AF0B6FCCDE904990A90226E214B15445F
S31502001B501B688244284698472946024604A810F084
S31502001B60DFFC069B582243440693079B494653448F
S31502001B700793E06A4AF09CFC05460AA80A9542F0D9
S31502001B8085FE4FF4C02120460AAA46F0F9F89DF8D0
S31502001B90A0301FFA85F8022BC5F307450AD89DF82F
S31502001BA05620BDF8543008EB054803EB0243434583
S31502001BB03FF4AFAE9DF8743004AC43F040033A46AE
S31502001BC030460AA911948DF8743042F08DFEA0E6D3
S31502001BD0D011070230210702284613F07BF804468B
S31502001BE0284646F007FC0546E06A05F03FFE90F9F6
S31502001BF00030002B7FF48DAE236B002B3FF489AEB1
S31502001C0093F90030002B3FF484AE20A842F03EFE4A
S31502001C1020AA4FF40021204646F0B2F894F870301C
S31502001C201A0705D59DF8CB3043F001038DF8CB306A
S31502001C301222002120464AF03BFC064610220021D1
S31502001C4020460A964AF034FC0746302200212046F6
S31502001C500A974AF02DFC01460A9194ED057F0DF193
S31502001C6028087A18404631448DED0A7F12F036FA7A
S31502001C70236B4246284620A9279342F035FE48E6C2
S31502001C803CB0BDE8F047FFF7DBB9284613F02AF867
S31502001C900168142916D801290ED98B1E122B0BD8CE
S31502001CA0DFE803F045210A0A0A0A1B0A390A0A0A68
S31502001CB00A0A0A332D29480020463CB0BDE8F047FF
S31502001CC0FFF76EBC7F29F7D1E56C2046691CFFF74A
S31502001CD099FAE36C9D423FF41CAE20463CB0BDE847
S31502001CE0F047FFF7E9BC47F6FF7120463CB0BDE876
S31502001CF0F047FFF787BAE16C20460131F6E7204646
S31502001D003CB0BDE8F047FFF79DBD20463CB0BDE8BC
S31502001D10F047FFF7C9BD94F870301B07CCD50022F7
S31502001D20232120463CB0BDE8F04746F0CBBA00215D
S31502001D302046DBE7E16C00293FF4EBAD2046013992
S31502001D40D4E700297FF48EAE012C7FF4E2AD89E65A
S31502001D5000276AE62BD29A4203D1AB6C99423FF432
S31502001D609BAE6A64F36E3046AB6447F0B9F893E60D
S31502001D70022C2CD0032C02D0082C7FF473AE3046F2
S31502001D804FF4407145F0C4FB96F87030D8077FF5E2
S31502001D90C0AD67E60AA9284605F024FE0AA9074649
S31502001DA0F06A05F023FE80F00102D2B23DE64FF65C
S31502001DB0FF72934203D1AA6C9A423FF46DAE4FF67C
S31502001DC0FF733046C5E9113347F08AF864E6F766D1
S31502001DD048E600BF2DE9F0470D4682B001210746CD
S31502001DE090464BF01BFB0021044638464BF016FB8F
S31502001DF00021064638464BF011FB33494BF052FBA5
S31502001E00034638469D4203F1FF3328BF1D4648F07C
S31502001E1085FA7CB397F8301011F00C012DD11422FB
S31502001E2020464AF045FB81462046CDF8049046F00E
S31502001E30D7FD00EB09014246204605FB01F148F0B9
S31502001E4011FE00213046204A4BF0F8FA88B10024F0
S31502001E50DFF874802A1BB2FA82F201215209013498
S31502001E6045F006FC4246214630464BF0E7FA00288A
S31502001E70F0D1FD6202B0BDE8F087152200212046AE
S31502001E804AF016FB82462046CDF804A046F06AFDCB
S31502001E9027220021814638464AF00AFBC3B2012BAB
S31502001EA0019008D009EB0A014246204605FB01F1E2
S31502001EB048F0C2FDC5E7D14469424246204601FBCD
S31502001EC009F148F0B9FDBCE7941C070210B50B48AE
S31502001ED00C4646F087F9012800D010BD204612F0C4
S31502001EE0FDFE034620461C4612F0F4FE2E2CF4D1CB
S31502001EF0BDE810400022C16AFFF76CBFF411070269
S31502001F0070B584B0044612F0E5FE0546204612F08E
S31502001F10E5FE044628464BF07DFA302C064603D0F1
S31502001F200B2C08D004B070BD0022C16A04B0BDE813
S31502001F307040FFF74FBF2DF0C3FB10B1037A012BA0
S31502001F40F0D0284602A948F023FC96F830302846FD
S31502001F5013F00C0F27D046F005FD27220446002178
S31502001F6030464AF0A5FAC3B2012B029B04EBD472A7
S31502001F700CBFC3EB620303EB620393FBF4F4019021
S31502001F80F56A24EAE4742DF09BFBB0B101222146E6
S31502001F903046FFF71FFFAC42C4D000222021304654
S31502001FA046F090F9BEE746F01BFD039C00EBD073AA
S31502001FB004EB630494FBF0F4E2E702462146304662
S31502001FC0FFF708FFE7E700BFF8B54B1E0D460446CC
S31502001FD0072B05D8DFE803F0905A04560404041DC3
S31502001FE000214BF01BFA0121064620464BF016FA59
S31502001FF094F8303005F00C0713F00C0F14BF0122D1
S3150200200000223B1E18BF01239A4279D184F8305030
S31502002010F8BD09212DF094FA002120464BF0FEF975
S315020020200121064620464BF0F9F90746394946F0A2
S3150200203039FB012138462DF0A7FA002130462DF052
S315020020407FFA002138462DF07BFA0321384648F004
S31502002050B9F90021384648F0C3F994F8303013F044
S315020020600C0FD3D120464BF023F843F035FF01463F
S3150200207001EBD17230462749521046F0E7FA84F84E
S315020020803050F8BD01212DF05BFAC5E708212DF08D
S3150200209057FA002120464BF0C1F901210646204697
S315020020A04BF0BCF907461B4946F014FB01213846A2
S315020020B02DF06AFA012130462DF042FA0121384606
S315020020C02DF03EFA0021384648F07CF903213846C5
S315020020D048F086F994F8303013F00C0F96D020466B
S315020020E04AF0E6FF43F0F8FE01463046094A46F05A
S315020020F0ADFA84F83050F8BD00212DF021FAC8E778
S3150200210020464AF0D5FF43F0E7FE0146002FECD009
S31502002110AEE700BF6400002070B50C460026154AE3
S315020021202046114684F8306046F090FA204645F083
S31502002130E1F9204645F0DEF9054631462DF000FA72
S315020021403346324628460C4946F0DEF831462846E2
S3150200215048F012F920460421FFF736FF284680216F
S3150200216045F0D6F92846BDE870404FF4806145F047
S315020021701BBA00BF64000020011F00022DE9F04FC8
S31502002180D0F82CA08BB001FB0AF9CDE90523D36860
S31502002190179A1344189A03EB02080AEB09039945A6
S315020021A04AD2DDE9153207464E464FF0000C13447B
S315020021B00793786BB20050F826E0BEF1000F34D0D8
S315020021C0FC6B0AF1FF33634554F82C1004EB8C0BBD
S315020021D050D9043A104401220CEB02049C424FF0FF
S315020021E00005A3EB0C03644688BF13460BE0126896
S315020021F0D2070CD55BF8042F013B05F1010511440A
S3150200220004F1010403D050F8042F002AEFD1DEF8BE
S31502002210003013F0020313D0059B179ADB681344B0
S31502002220189A13449845B8BF984601360AEB090333
S31502002230B3420CF1010CBCD840460BB0BDE8F08F9E
S315020022400293079B08A8C91A149B019100930EF1E9
S315020022500801DDE9052314F0F9FA179A099BA44649
S315020022601344189AD7F82CA013449845B8BF984639
S315020022702E44DAE764460025C9E700BF2DE9F0419E
S3150200228000251C4606460F46904682B01D6052B196
S3150200229042F001E02946F26B52F821000131054471
S315020022A025600FF009C02722002130464AF000F9C6
S315020022B0C3B2012B01903BD0304648F0C1F82368E7
S315020022C012221B1A2360002130464AF0F1F82368D5
S315020022D0019003442360F26B52F828201344013B19
S315020022E0A3600023636057B147F001E01A46B16B61
S315020022F051F8221001320B4463600FF009C000212D
S31502002300102230464AF0D4F80346626830461A4430
S315020023106260019348F09AF86368181A6060B36BBA
S3150200232053F8273018440138E06002B0BDE8F08166
S31502002330304648F085F8236803442360304646F069
S3150200234005FB23681322C51A002130464AF0B0F86D
S315020023502B1AA360F26B019052F828209B1A236075
S31502002360BFE700BF30B585B0D0E910216B46044601
S31502002370FFF784FF0099002919DB2046029D46F0EB
S31502002380E5FA854227DC019A002A07DB2046039DEF
S3150200239046F0E2FA854211DC05B030BD0123002188
S315020023A02046524205B0BDE8304048F0E5BA012366
S315020023B000222046494248F0DFFAE4E7204646F08A
S315020023C0CBFA0246012300212046521B05B0BDE886
S315020023D0304048F0D1BA204646F0B8FA0146012309
S315020023E000222046491B48F0C7FACCE72DE9F04FF8
S315020023F0ADF5177D044612F06DFC8346204645F086
S31502002400F9FF0346183306901A4624A80BF1140165
S315020024101C460E9311F072FE18B90DF5177DBDE834
S31502002420F08F28AD94E80F0085E80F0024AB0FCBA0
S3150200243084E80F003022002158464AF039F8054652
S315020024401022002158467A954AF032F804461122A3
S3150200245000210B9058467A944AF02AF80346122233
S3150200246000210C9058467A934AF022F8034600213E
S315020024701322099058467A934AF01AF802467A923B
S31502002480DBF828204D4BBBF82860134043F40023A9
S31502002490CBF828300A905EA8119642F0DFFD4FF481
S315020024A0A0215EAA584645F06DFA34A842F0EEF92C
S315020024B04FF4A02134AA584645F062FC9BF82A3014
S315020024C0ABF8286023F008038BF82A30DBF81830C3
S315020024D0584623445C1E47F0B9FF0027231A2B44B3
S315020024E058462F932C972E9747F0AAFF272282460B
S315020024F03946584649F0DCFF7A90DBF83040C6B2DE
S31502002500002C00F09181CDF83CA01095B2463D46D4
S315020025100497DBF83830049A2F9953F822200131B8
S315020025208B1803F1FF3E279B2D919942CDF8BCE013
S3150200253000F37A81BAF1010F00F0DD810999DBF827
S3150200254014300B440F99013B5B1A10990B442E93DE
S31502002550DBF82C00002800F061814FF00008DBF860
S31502002560341002EBD27253100D9351F82530064601
S31502002570474670464FEA8509002B00F034811B68F6
S31502002580DBF83C20BAF1010F059302EB870C00F051
S3150200259033812E9B01332C9352F827201344013B9F
S315020025A02E93731EBB4240F23381A9F104023C46CC
S315020025B04FF000088646DB1B11440AE00000F7FFD5
S315020025C02E9A013B02442E9208F1010804F10104FD
S315020025D014D051F8042F8AB11268D0070ED5BAF179
S315020025E0010F5CF8040FEBD12C9A013BA2EB00021F
S315020025F02C9208F1010804F10104EAD17046259BE8
S3150200260001358342454400F3E180DDE92D6EDDF8B4
S31502002610B0C0CDE9176ECDF858C019909DED167F62
S315020026209DF8C1218DED1C7F510702F01F030BD5CA
S31502002630DBF8142009990A44624505DA6F9A02EB1F
S31502002640D272ACEB62021C929A070BD5DBF8182009
S315020026500B990A44B24205DA6F9A02EBD272A6EBE2
S3150200266062061D961E070FD5DBF81C200A99521A20
S31502002670013A724508DD6F9A02EBD27602F0010248
S3150200268002EB660272441E92D9070FD5DBF82030A0
S315020026900C9A9B1A013B834208DD6F9B03EBD372B4
S315020026A003F0010303EB620303441F93DBF8443098
S315020026B0049A934204D1DBF84030BB4200F0D28048
S315020026C00DF5F47870225EA9404649AE0FF028FF58
S315020026D05422304634A90FF023FF049B4146069844
S315020026E01CAACDE97C37C6E9023742F013FDDBF8B6
S315020026F0343053F80930002B66D012224FF4A02151
S31502002700584649F0D5FE034613224FF4A0213093D2
S315020027105846089349F0CCFE0346102230934FF4F4
S31502002720A0215846079349F0C3FE804611224FF472
S31502002730A021CDF8C080584649F0BAFE2C9A089BD3
S315020027402E991344079A1293891A2D9A309090441F
S315020027502F9ACDE91381121A15929DED127F8DEDF6
S31502002760207FCB1A03F1010C059BDBF83410C3F36F
S31502002770400E03F0020351F809100593F36BCDE9FD
S3150200278001CE0791B16B3C9A009107991AA80831BC
S3150200279014F05CF8059B30AF0DF180086BB91B9BFA
S315020027A00D992D9A03EBD3735B105B420A44D11841
S315020027B0D21AC8F80410C8F80C2038462CAA24A944
S315020027C011F09CFC002838D1DBF82C60671CBE4255
S315020027D022D9DBF834102F9851F825304FEA8509B3
S315020027E0002B7FF4CCAEDBF83C20BAF1010F059347
S315020027F002EB870C7FF4CDAE2C9B013B2E9352F855
S3150200280027209B1A01332C93731EBB423FF6CDAE93
S315020028103C464FF00008F2E6DBF83040049B0133F9
S315020028209C4204933FF675AE0E9C28AB0FCB84E810
S315020028300F000DF5177DBDE8F08F97E80F000E9F8C
S3150200284087E80F00DBF83430424653F80930314648
S3150200285008330698F36142F047F824AB0FCB87E8BA
S315020028600F00B1E7BBF8282002F06001A1F12003B6
S31502002870B3FA83F302F004065B0902F0080092073A
S315020028804FEA43132ED543F002030EB143F004037D
S3150200289008B143F00803ABF828309BF82A300DF54F
S315020028A0F47843F008038BF82A30404649AE42F0EA
S315020028B0D5FB304641F0EAFF42464FF4A021584686
S315020028C045F060F832464FF4A021584645F058FAD2
S315020028D0119BABF828309BF82A3023F008038BF8BB
S315020028E02A30FAE6002ED1D10028D2D120297FF44F
S315020028F0E7AE0B46CFE70A99DBF81C305B1A0F9955
S31502002900013B5B1A10995B1A2C9321E6F8B50D462A
S31502002910D1E90BC101FB0CF36A6BDBB1002427463C
S3150200292052F82400A60080B143683BB1184610F065
S31502002930DDF96B6B9B595F606B6B985910F0D6F99A
S315020029406B6B9F516A6BD5E90BC101FB0CF301342A
S31502002950A342E5D812B1104610F0C8F9A86B08B127
S3150200296010F0C4F9E86B18B1BDE8F84010F0BEB932
S31502002970F8BD00BF012310B50C46C1E90B33042094
S3150200298010F098F9236BE063980010F093F9822314
S31502002990E26BA0631360A26B1360D4E90B3103FBF5
S315020029A001F1606B890010F0ABF9002360630360EC
S315020029B010BD00BF2DE9F04F12228DB04FF4A021B9
S315020029C0044649F075FD054613224FF4A021204620
S315020029D00B9549F06DFD064610224FF4A0212046C4
S315020029E00B9649F065FD074611224FF4A0212046B9
S315020029F00B9749F05DFD03465B224FF4A021079039
S31502002A0020460B9349F054FD03465C224FF4A02165
S31502002A10089020460B9349F04BFD03465A224FF489
S31502002A20A021099020460B9349F042FD82460622D8
S31502002A304FF4A0212046CDF82CA049F039FD83465B
S31502002A4007224FF4A0212046CDF82CB049F030FDE4
S31502002A50236B0B90EBB181464FF000080798414675
S31502002A60CDE903700998089B009052462046CDE9AD
S31502002A700156FFF783FB4845A8BF48465845B8BFED
S31502002A805846A36B43F82800236B08F101089845C2
S31502002A90E4D3204646F082F820460DB0BDE8F04F5A
S31502002AA046F01EBAF0B5C94885B00C4645F09AFB09
S31502002AB0012801D005B0F0BD204612F00FF90546F7
S31502002AC0204612F007F96B1E0546302BF2D801A2FA
S31502002AD052F823F0B12B0002B12B0002B52A0002F4
S31502002AE0B52A0002B52A0002B52A0002B52A00025A
S31502002AF0852C0002B52A0002B52A0002B52A000278
S31502002B00B52A0002B52A0002C32C0002B52A000229
S31502002B10A52B0002B52A0002B52A0002B52A000238
S31502002B20B52A0002B52A0002B52A0002B52A000219
S31502002B30B52A0002B52A0002712D0002B52A00024A
S31502002B40B52A0002B52A0002B52A0002B52A0002F9
S31502002B50B52A0002B52A0002B52A0002B52A0002E9
S31502002B60B52A0002B52A0002B52A0002B52A0002D9
S31502002B70B52A0002B52A0002B52A0002B52A0002C9
S31502002B80B52A0002B52A0002B52A0002032D000268
S31502002B90B52A00020D2D000200232846C5E910338E
S31502002BA0FFF7E0FB284605B0BDE8F04046F098B9CD
S31502002BB02CF086FD2CF096FD00F0FD0001287FF436
S31502002BC079AF2CF07DFD02A92CF098FD2846029CD7
S31502002BD047F036FC03462722002128461C4449F0CA
S31502002BE067FCC3B2012B019000F0FE806B691222D2
S31502002BF000212846E41A49F05BFC0190A4EB000C84
S31502002C00EC6A8CB1E96B0A689445C0F20D8100202A
S31502002C10234605E051F8046F3244624500F3E08032
S31502002C20013B00F10100F5D12846039E47F00EFC58
S31502002C30AB690644102200212846F61A49F038FCF0
S31502002C402F6B0190A6EB000C8FB1A96B0A68944515
S31502002C50C0F2EC8000203B4605E051F8046F324496
S31502002C609445C0F2BF80013B00F10100F5D12B6C07
S31502002C70A34203D16B6CBB423FF41CAF2846C5E9A5
S31502002C80104790E746F02CF92CF01AFD2CF05EFD69
S31502002C904FF6FF732A6C9A4205D06A6C9A4202D0AA
S31502002CA0002800F0B8802CF00BFD2CF01BFD00F084
S31502002CB0FD0001287FF4FEAE4FF6FF73C5E910331F
S31502002CC0F8E6204612F00EF84FF6FF732A6C0168FA
S31502002CD09A426C6C3FF460AF9C423FF45DAFEF6A80
S31502002CE02E6BBA42B4BF104600201139B442B4BFAB
S31502002CF02346002303293FF6DDAEDFE801F06B69C8
S31502002D00643F05B0BDE8F040FFF754BE204611F01F
S31502002D10E9FFEB6A002B7BD04FEA830EAEF1040E7D
S31502002D204FEA9E0E0EF1010E00234EF001E0EA6B11
S31502002D30043A52F8041F0B440FF005C85A1E2B6BB7
S31502002D40002B62D04FEA830EAEF1040E4FEA9E0EBE
S31502002D500EF1010E00234EF001E0A96B043951F881
S31502002D60044F23440FF005C8013BC0E90023A1E646
S31502002D70204605B0BDE8F040FFF738BB0138874270
S31502002D802ADC711E9942C6BF0021013307F1FF31C9
S31502002D909E42D4BF06F1FF3323EAE3738A4202D18D
S31502002DA0A3423FF487AEC5E91013284646F098F8C9
S31502002DB02846FFF7D7FA00222021284605B0BDE8AB
S31502002DC0F04045F07FBA0130D9E700BF181207027A
S31502002DD00133D4E7013BD2E7002810DB0146D7E7EF
S31502002DE0044621E7074642E7132200212846EE69F8
S31502002DF049F05EFB361A0190A6EB040C00E7194671
S31502002E00002BC5D0791E013BC2E74FF0FF33ACE77A
S31502002E104FF0FF3293E702462021284645F052FA48
S31502002E2001287FF447AE3EE70024FDE600271EE7B1
S31502002E304FF0FF330068C36246F052B8C16246F0F3
S31502002E404FB800BF0846002110F0FEBF2DE9F0433F
S31502002E50C9B0054611F03EFF0446284645F0CAFAB7
S31502002E6007460CA9204645F0F9FD10A842F0F6F8EF
S31502002E704FF40031204610AA44F084FD0CAA3846CD
S31502002E8010A942F047F9204645F066FD6369E669F6
S31502002E90E26AF61A0136531C8146A6EB00066AD090
S31502002EA006FB02F202F1FF03002AB8BF1A46151208
S31502002EB027220021204649F0FBFA03462C93DBB277
S31502002EC0012B4B46A6EB050608BF3546012BB8BFBC
S31502002ED001236669013B354404951D44A369122208
S31502002EE0CDE90535236A4FF4403107939DED047F02
S31502002EF020468DED087F49F0DBFA814613224FF416
S31502002F0040312046CDF8B09049F0D2FA054610225B
S31502002F104FF4403120462C9549F0CAFA0646112252
S31502002F204FF4403120462C9649F0C2FA089B0B9981
S31502002F30A3EB0902099B01449E1B0A9B00922B44A8
S31502002F40CDE9016303919DED007F2C902CA88DEDB8
S31502002F50087F0DF1200842F081F820462CAA4FF492
S31502002F60403144F00FFD424638462CA942F0D2F8D1
S31502002F7049B0BDE8F083204644F0AAFB10F0010FE9
S31502002F8014BF3546002593E710B54FF0FF330C46C4
S31502002F9010212046E36244F007FB2046082144F054
S31502002FA0B7FA2046BDE810404FF4806144F0B0BA4B
S31502002FB02DE9F041524896B00C4645F013F9012826
S31502002FC002D016B0BDE8F081204611F087FE054614
S31502002FD0204611F07FFE182D064609D0202D4BD033
S31502002FE01A2DEED1204616B0BDE8F041FFF72EBFEE
S31502002FF012224FF4403149F05BFA054613224FF490
S3150200300040313046009549F053FA804610224FF47B
S3150200301040313046CDF8008049F04AFA074611227F
S315020030204FF440313046009749F042FA4545B8BF61
S315020030304546BD420346B8BF3D464FF440319D4228
S315020030403046B8BF1D46009345F032F803460235B6
S315020030502046EC1811F046FE05462B684FF4003167
S315020030609C42B8BF1C4630462C6045F021F884428B
S315020030700FDD28682860A4E76422002149F018FAC7
S315020030800446009058B9304616B0BDE8F04145F006
S3150200309027BF4FF40031304645F00AF8EAE73046DA
S315020030A044F016FBF76A00F001057B1C20D0A7EB63
S315020030B00528B8F1000FB8BFC8F100082D0200219B
S315020030C0304610F0C1FE684610F04CFE4FF0004349
S315020030D008FB04F40B4A240A04920B4A6846099731
S315020030E000960B950C9401920A9310F055FECAE7CE
S315020030F04FF4807815B100274546E0E74746DEE7FC
S315020031003C120702312E00023D2E00020AF0F8BAE6
S315020031100AF034BBFFFFFFFFF0B515460E4697B027
S315020031200021044610F090FE684610F01BFE4FF098
S3150200313000474FF0FF32184B0C9601934FF4B476CA
S3150200314005F5B473099500256846CDE90A7311920F
S31502003150009410F021FE114A114B6846CDE908256C
S3150200316001930A970AA3D3E900230B96CDE912230A
S3150200317010F012FE3246294620460AF089FF4FF425
S31502003180877120460AF090FF17B0F0BDAFF30080BA
S31502003190AE01510200000004113100021540010285
S315020031A00D31000210B50C460221204644F0FCF90E
S315020031B02046BDE81040C8224FF47A71FFF7ACBF33
S315020031C02DE9F0410026C26F8AB0B2420546CDE92A
S315020031D00566CDE90766436FADF82460C0F28380C9
S315020031E0012605AC002B444AB8BF5B420E2101A85A
S315020031F00FF068F801A80FF02BFA95F884C00CF0CE
S315020032000F08B8EB000215D000280BDB431C01A9FE
S3150200321043F001E00B44414413F9010D01F80109A1
S315020032200FF007C0002A05DD302101A867F0E8F992
S3150200323095F884C0BCF10F0F38D84746B8F1000F95
S3150200324014D0002F4FF0000114BF3A46012201A804
S3150200325005E0013A04F8013B01F1010103D010F93E
S31502003260013B002BF5D1BCF10F0F23D805A9284647
S31502003270FEF772FAD5F8803095F88410092B01F022
S315020032800F0109DD1D481A46A0FB0343632A01F11B
S31502003290FF314FEAD303F6DC8F4251EA21912846E9
S315020032A0891BFDF7AFFF0AB0BDE8F0815FEA1C1784
S315020032B0C7D139462E232046414500F8013BD5DACF
S315020032C008F10108A8EB01084444013901AB0B449B
S315020032D0241A03E0013C00F8012BC7D013F9012F91
S315020032E0002AF7D1C2E7B342B4BF2D222B220DF139
S315020032F015048DF8142075E74CEC0602CDCCCCCC27
S3150200330070B50C4601250026B4F884300D4A6FF3D9
S315020033100A030D4843F4806343F005032946C4E9D2
S315020033201F25A067A4F8843020466667FEF73AF8A0
S3150200333020462946FEF72EF82046BDE87040FFF7E4
S315020033403FBF00BF6179FEFF9F860100426FD0F842
S315020033508030002A816F134404DB994207DB9342D3
S315020033600DD17047002BF8DD5342994207DA90F8E7
S31502003370853013F0010F0B46F1D08A4202D0436723
S31502003380FFF71EBFC36FEAE7426FD0F88030002A0C
S31502003390C16FA2EB030301DD002B04DB994205DCBE
S315020033A093420BD170475342994207DD90F885301C
S315020033B013F0010F0B46F3D08A4202D04367FFF7A0
S315020033C0FFBE836FECE700BFF8B585480D4644F0B3
S315020033D009FF012800D0F8BD0446284611F07EFCFC
S315020033E00646284611F076FC082E074613D00E2E06
S315020033F0F1D12CF065F92CF075F90446284611F046
S3150200340071FC0168A1F11103032B00F2E480DFE8ED
S3150200341003F05752755C2CF053F92CF063F904282B
S3150200342021D03846FDF7F4FF04460FF011F9F96C86
S3150200343063562E2B6BD088427DD0F86F00296BD154
S3150200344000287FDB97F8842002F00F02013A01235D
S3150200345032B142F001E003EB83035B000FF005C8D3
S31502003460C7F88030F8BD384644F03AF943F0C8FA56
S315020034700028D6D097F8842002F00F02012AAAD992
S3150200348097F88530D7F8805003F00603042B60D1F5
S31502003490012D40F38280534AEB1782FB0552C3EBA0
S315020034A0A203012BB8BF0123C7F880303846BDE816
S315020034B0F840FFF785BE3846BDE8F840FFF764BF1F
S315020034C03846BDE8F840FFF741BF042CF3D0D7E9F0
S315020034D01E13002BB8BF5B428B42B8BF0B46D7F810
S315020034E0802002EB82025000B3EB420FA8BFC7F85E
S315020034F080003846BDE8F840FFF762BE042CDFD0F4
S31502003500D7F880203749D31781FB0212C7E738461E
S31502003510FEF792F9F96CF86F97F88430B1EB131F46
S3150200352002D90F2B88BF013903F00F02013A521A52
S3150200353002EBD0728BE738460139FDF763FEF96C70
S31502003540F86FE9E701213846FDF75CFEF96CF86F82
S31502003550E2E70A200021013A12F052F8EB178542FF
S315020035608B4113DAD7E91E03002BB8BF5B428342B5
S31502003570B8BF0346D7F8802002EB8202B3EB420FB4
S315020035804FEA4201B5DBC7F88010B2E7C7F88040C0
S315020035903846BDE8F840FFF713BE023A0A2000217A
S315020035A012F02EF8D7E91E1383EAE372A2EBE37256
S315020035B08A420346B8BF0A4603EB8301B2EB410FC8
S315020035C04FEA4101A8BF0B46C7F880303846BDE82E
S315020035D0F840FFF7F5BD3846BDE8F840FDF7E0BF15
S315020035E0841207026766666608B540F204700FF039
S315020035F061FB034BC3F8DC0100B108BDFEE700BF67
S31502003600D00E04222DE9F0430C46054687B0511030
S31502003610002B53D023685B1A1A44013A2360A26036
S3150200362083696360036AE36012224FF440312846DD
S3150200363048F03EFF804613224FF440312846CDF82B
S31502003640148048F035FF814610224FF44031284657
S31502003650CDF8149048F02CFF064611224FF4403163
S315020036602846059648F024FF074668224FF4403163
S315020036702846059748F01CFF034669224FF440315D
S31502003680284605931D4648F013FF03462268A844C0
S31502003690A2EB080200924D44D4E901210D440295A1
S315020036A0E16806443B44921B0B44019203939DED51
S315020036B0007F84ED007F07B0BDE8F08363685B1A84
S315020036C01A44013A6360E26043692360C369A360F6
S315020036D0AAE700BF38B50C46002594F8A0304FF48F
S315020036E0807123F0030384F8A0302046C4F89C506E
S315020036F043F05AFF1021204643F056FF4FF48061F3
S31502003700204643F005FF284642F0E6FB1D2805DC6D
S315020037102046BDE83840012145F066BE284642F003
S31502003720DBFB064B0A3083FB0023C117C1EBE30127
S315020037302046BDE8384045F057BE00BF676666665C
S315020037402DE9F04F89B00E4604462BF0B9FF054627
S315020037502BF0C8FF012802D009B0BDE8F08F284639
S315020037602BF0F4FF0028F7D1284604A92BF0C6FF58
S31502003770032204A9204645F0B3FA204645F0E6F8AE
S315020037800746204645F0E8F88046002E6ED1D4F86A
S315020037909C50002D00F0B18004F138052722D4E9AF
S315020037A00C3600212046F61A48F082FE03462046D1
S315020037B05FFA83F9069345F0C9F88246204645F03A
S315020037C0CBF8B9F1010F94F84CB000F08F804FF0AE
S315020037D00009474560DA10220021204648F068FEBB
S315020037E003461122002120460693019348F060FE0B
S315020037F082462046CDF818A045F0AEF8019BA0EB14
S315020038000A02CB45A2EB030200F0CE80A16905981D
S315020038100B44C01A02EBD2735B1006FB003393FB18
S31502003820F2F3216B0B44D4F89C20606BAA420CBFC6
S31502003830E06AA16B8342A8BF03468B42B8BF0B4620
S315020038401068984288D04745ACBF4FF400714FF4D8
S3150200385080711360204643F0A7FE204645F040FBE8
S3150200386000222021204644F02DFD75E794F8A03071
S31502003870DB078CD48742ABBFD4F89420D4F89820C7
S31502003880049B059B9B1A002B95F82420B8BF5B422C
S315020038909342BFF67CAF5FE712220021204648F032
S315020038A007FE8246132200212046CDF818A048F0D2
S315020038B0FFFD014620460691019145F047F8019920
S315020038C0A0EB0A02CB45A2EB010273D0E3695B1AB5
S315020038D004995B1A216B002AA5D002EBD270401024
S315020038E006FB030393FBF2F30B449CE78245B4BF4A
S315020038F04FF000094FF001096BE7204609F0F0FC92
S3150200390094F8A030022843F0010384F8A03057D17E
S315020039102BF0D6FE06A92BF0F1FE0322204606A9BD
S3150200392045F0DEF927222946204648F0C1FD064623
S315020039302046039645F00AF8F6B28146204645F03F
S315020039400BF8012E94F84C2059D081453FDB2B46CB
S315020039509342069D65D0D4F88430AB4230DCE16FE9
S31502003960A94250DBD4F88C00626F891AC01A01EBA7
S31502003970D17100EBD07002EB610203EB6003521BC4
S315020039805B1B002AB8BF5242002BB8BF5B429A4269
S3150200399094F8A0303CDD04F12C0223F00203C4F8B3
S315020039A09C2084F8A030F7E6236A0AEB0300059B05
S315020039B0C01A2FE763699A44049BA3EB0A0389E7BB
S315020039C004F12C03C4F89C3004F13805E6E6079DA1
S315020039D092B3D4F89010A942F2DBA26FAA4212DC8B
S315020039E0D4F88830D4F88000801AC91A00EBD07057
S315020039F001EBD17102EB600203EB6103BFE7814584
S31502003A00E5DB3346A4E704F13805C4F89C50C5E665
S31502003A1004F1380543F00203C4F89C5084F8A03040
S31502003A20BCE6D4F88C00A842CADB626FAA42EADC82
S31502003A30D4F88430E16F98E7D4F88830AB42BFDC23
S31502003A40D4F88000A842DEDBD4F89010A26FCBE750
S31502003A502DE9F04FD548BFB00E4644F0C3FB01280E
S31502003A6002D03FB0BDE8F08F304611F037F9054677
S31502003A70304611F02FF9074609F032FC01280446B8
S31502003A8005D0A4F10204B4FA84F4640964006B1E3E
S31502003A902D2BE6D801A252F823F000BF313D0002D9
S31502003AA09F3E0002553B0002633A0002633A00025F
S31502003AB0633A0002633A0002553B0002633A00028F
S31502003AC0633A0002633A0002633A0002633A000272
S31502003AD0BD3B00021D3C00027F3E0002633A00022B
S31502003AE0633A00024F3D0002633A0002633A000263
S31502003AF0633A0002633A0002B13D0002633A0002F1
S31502003B00433C0002633A0002633A0002633A00024F
S31502003B10633A0002633A0002633A0002633A000221
S31502003B20633A0002633A0002633A0002633A000211
S31502003B30633A0002633A0002633A0002633A000201
S31502003B40633A0002633A0002633A0002633A0002F1
S31502003B50FD3C0002002500213846FFF7F1FD97F8EB
S31502003B60A030384623F0010387F8A030C7F89C50EE
S31502003B7045F0B6F9384643F0B3FD064642F040FF3B
S31502003B8004462BF09DFD2BF0ADFD042800F0C1810B
S31502003B9001287FF466AF384644F0D8FE044638461C
S31502003BA044F0DAFE8442ACBF4FF400714FF48071E8
S31502003BB038463FB0BDE8F04F43F0AABC304644F069
S31502003BC023FC113803283FF64CAFDFE800F0180259
S31502003BD0180297F8A03038469A0700F1E48109F0F6
S31502003BE06BFB014601223846013909F0B9FA002277
S31502003BF0202138463FB0BDE8F04F44F063BB97F84A
S31502003C00A0303846990700F1518109F055FB01228F
S31502003C1001463846114409F0A3FAE8E7304644F073
S31502003C20FFFB97F8A03004469B07384600F13E8119
S31502003C3009F042FB014601223846214409F090FA76
S31502003C40D5E7304611F046F80446304644F0D2FB3A
S31502003C50272200218046204648F02AFC03462046B9
S31502003C60DFB2229344F072FE0646204644F074FE0A
S31502003C708642B4BF4FF0000A4FF0010A012F0546F3
S31502003C8094F84CB0204600F0538109F02FFBAE4267
S31502003C908146C0F2278100230193204644F05CFE50
S31502003CA00746B9F1000F03D0E36A002BC0F26E811A
S31502003CB0019B5B4500F06E81E36B029306A841F01F
S31502003CC0CDF94FF44031204606AA43F05BFE534637
S31502003CD03A46204602A9FFF795FCA1469DED027FD2
S31502003CE02046A9ED217F09F0FBFA022800F0278180
S31502003CF04A46404606A941F00DFAB2E6384644F075
S31502003D0025FE0446384644F027FE8442C0F2DC8093
S31502003D104FF40071384643F0FBFB4FF4807138468E
S31502003D2043F042FC38463FB0BDE8F04F44F02EBAAD
S31502003D3007F194042BF0C4FC21462BF0DFFC03228E
S31502003D40214638463FB0BDE8F04F44F0C9BF304681
S31502003D5010F0C8FFBD68064605B12D6A97ED217FB2
S31502003D6022A880ED007F2A46294610F0A1F90022FA
S31502003D70316822A810F092FA307100287FF471AEF1
S31502003D80022C7FF46EAE97ED1D7F01908DED227FA2
S31502003D9022A82A46294610F08BF9019B31681A4659
S31502003DA022A810F07BFA30715BE600BFA812070268
S31502003DB012224FF44031384648F07AFB0546132268
S31502003DC04FF440313846229548F072FB8246102263
S31502003DD04FF440313846CDF888A048F069FB814659
S31502003DE011224FF440313846CDF8889048F060FBF6
S31502003DF0804668224FF440313846CDF8888048F034
S31502003E0057FB834669224FF440313846CDF888B0D5
S31502003E1048F04EFB04463846229444F097FD00EBE8
S31502003E204B033846019344F097FD019B00EB440097
S31502003E3083424FEA4B0B38464FEA44043FDA44F0DA
S31502003E4085FD83444FEA6B045545B8BF55464D453B
S31502003E50B8BF4D464FF44031384644F029F945453E
S31502003E60ACBF641944440346023430461C4410F085
S31502003E7039FF03689C42B8BF1C460460F1E52BF08B
S31502003E801FFC2BF02FFC042802D002287FF4E9AD98
S31502003E9097F8A03023F0020387F8A030E1E501216C
S31502003EA038463FB0BDE8F04FFFF74ABC09F00AFAC0
S31502003EB0012201463846114409F0C2F997E644F058
S31502003EC04BFD04446410BFE738464FF4807143F05B
S31502003ED01FFB4FF40071384643F066FB22E709F0F8
S31502003EE005FA8146204644F031FD0746B9F1000F36
S31502003EF002D0E36A002B07DBBBF1000F07D0A36CED
S31502003F00039300230193D9E6BBF1000FF7D0236C8C
S31502003F10F6E7002C3FF4A5AD384609F0E1F9022890
S31502003F204AD0294630463FB0BDE8F04F42F0F8BCD1
S31502003F30AE42D4DB09F0DAF901978146ADE670228A
S31502003F4006A922A80EF0ECFA4A46404606A941F016
S31502003F50E1F8AE4220DB019B9B450CBFE36B636C31
S31502003F600293204653463A4602A9FFF74BFB9DEDC4
S31502003F70027FA4ED1D7F22A9702206A80EF0D0FAB8
S31502003F802246404606A941F0C5F86AE5019B5B4513
S31502003F903FF492AE636C90E6019B9B450CBFA36C0B
S31502003FA0236C0393DDE709F08DF9014601223846B9
S31502003FB0013909F045F91AE697F8A030980704D4B2
S31502003FC043F0020387F8A0304BE565F34103294627
S31502003FD0304687F8A030A6E72DE9F04FB0F84890B2
S31502003FE0036C85B0C9F30E09D0F844B00393B9F156
S31502003FF0000F34D08046002509F1FF3A00F12C0665
S31502004000D8F848400021C4F3CE34B5FBF4F7524643
S31502004010039B2846CDF800B011F010FB04FB17579E
S3150200402004463046B7FA87F711F000F97F090146D0
S3150200403090B1CB68A34209DC0B69A34206DB4B694C
S31502004040FF2B0FD0AB421CBF8D610F62304611F0C1
S31502004050F5F801460028ECD10135A945D0D105B0C5
S31502004060BDE8F08F4D61CF61F0E700BFF0B50746BE
S315020040700C461E4683B0002A3DD0154648216A46A4
S31502004080284611F0A9FE01281AD1009820636A4633
S315020040904C21284611F0A0FE01281FD1009BA385C2
S315020040A01B0C84F82E306A464D21284611F094FEE8
S315020040B001280CD19DF8000084F83C0003B0F0BD45
S315020040C048223146384648F0F3F90190DEE74D22A0
S315020040D03146384648F0ECF9C0B2EDE74C2231469B
S315020040E0384648F0E5F903460190C0F3074084F8E4
S315020040F02E00A385D7E719464C2248F0D9F9034684
S315020041001D460193C3F30743314684F82E304D22F0
S315020041103846A58548F0CCF903464822314638464A
S3150200412084F83C30019348F0C3F9206303B0F0BD34
S315020041302DE9F04F0E4683B000211746122204469F
S3150200414048F0B6F90546132200212046019548F0AB
S31502004150AFF98146102200212046CDF8049048F09E
S31502004160A7F98046112200212046CDF8048048F0A6
S315020041709FF982462046CDF804A044F0E7FBA0EB67
S31502004180050B204644F0E8FBA0EB0803ABEB090B5A
S31502004190A3EB0A039B45204611DA44F0D7FB431BE7
S315020041A0A3EB0900430862691A442A443260A269F1
S315020041B01A44424472603B6003B0BDE8F08F44F09B
S315020041C0CBFBA0EB0803A3EB0A035B08EBE700BFFC
S315020041D02DE9F04F04461646A1B010A889461F469F
S315020041E040F0AAFE10AA0021204643F09DFE0322BB
S315020041F0002E00F0F6804FF40031204648F058F9C0
S31502004200002580460C90E36B102B60D8DFE803F0A4
S315020042106262625F625F5F5F095F5F5F5F5F5F5FF0
S31502004220090020460CA944F019FCDDE90C1C0E9B82
S315020042300F98226D5B1AA0EB0C00013301305B086C
S31502004240400802FB09F2834228BF0346B4F848003D
S3150200425002EB8202C0F30E0001385200B2FBF0F20A
S31502004260002E18BF4546606DD4F83CE000EB800096
S3150200427002EB40041C9A03EB0C001944BEF1080F32
S31502004280A3EB0203CDE90A100CBF5D1BED1819441E
S315020042904FF000084FF480730AAE39607860214609
S315020042A01A4638460096CDF8048010F029FB4FF4E2
S315020042B080730A9A0B9821462A9C2A44CDF80480D8
S315020042C0226060601A462046009610F019FB21B063
S315020042D0BDE8F08F30220021204648F0E9F88246F8
S315020042E0102200212046CDF830A048F0E1F803461E
S315020042F0112200210C9320465344029348F0D8F829
S315020043000346132200210C9320465344039348F09C
S31502004310CFF80346122200210C93204653440593FC
S3150200432048F0C6F8834613224FF4A0212046CDF862
S3150200433030B048F0BDF8034612224FF4A02108908F
S3150200434020460C9348F0B4F8034610224FF4A021FD
S31502004350069020460C9348F0ABF803464FF4A02192
S315020043600490112220460C9348F0A2F8E16B034612
S3150200437002290C904BD00BEB0A0207921C9A0429D5
S31502004380D4F814C04FEA520A34D0012967D00398F0
S31502004390AAEB000A206A8244DDE90620104400EBFB
S315020043A00C0B002965D1002EB4F84860C5F1000552
S315020043B055EA08B5C6F30E06042906F1FF3639D0CA
S315020043C0B1455FD0B9F1000F76D1C7E900BA2A9B91
S315020043D02A9AC3F800B07B682B44536021B0BDE82B
S315020043E0F08F4FF4A021204648F062F8B046054609
S315020043F00C9008E7079A04989244A2690AEB0C0B00
S315020044000992029A00EB020A099A9244CBE71C9A95
S3150200441005990298C1EB520BE26904999344A26989
S3150200442001EB000A924406B14546B4F84860C6F369
S315020044300E06013EB14507D00399226A5918A2EB2E
S31502004440010AB9F1000F24D10BF1FF33C7E9003A93
S315020044505D1B2A9BC3E9005A21B0BDE8F08F029B7F
S31502004460089A53449A46A3699A44059B134403EB5C
S315020044700C0B002EB4F8486018BF4546C6F30E066C
S31502004480013E9DE7DDE906231344E269A2EB030B35
S315020044909BE72046059344F05FFADDE902231A44BE
S315020044A0049B1A44059B1344C31A09FB03F393FBAB
S315020044B0F6F3AAEB030AC7E7204644F047FA079A3F
S315020044C0059B1344089A1344069A1344C31A09FB1C
S315020044D003F393FBF6F39B4477E700BF2DE9F04F16
S315020044E0B0F848B0A9B0CBF30E0BBBF1010F40F206
S315020044F0B680C36B0546102B00F0B180082B00F086
S31502004500AE804FF0000908A840F016FD4FF40031C6
S3150200451008AA284643F008FD18A840F00DFD4FF4FE
S31502004520A021284618AA43F0FFFC0BF1FF330393A0
S3150200453005F12C07D5E91134009300212B6C039A5F
S31502004540484611F07BF8C4F3CE3406463846B9FB2A
S31502004550F4F810F06BFE04FB18980446C8B1E36841
S31502004560B34203DC2369B34280F2D0804FF40031B8
S31502004570284608AA43F0D8FC4FF4A021284618AAD8
S3150200458043F0D2FC2146384610F058FE0446002875
S31502004590E5D1B8FA88F206AB49460093520904AB54
S315020045A02846FFF715FEB5F84830149A2499C3F346
S315020045B00E03B8F1000F40F09580994500F0C080D7
S315020045C0B9F1000F6CD1EB6B082B08D0102B06D07B
S315020045D0022B00F0BC80042B00F0B980EA65384655
S315020045E010F024FE0446002800F0B9805FFA89FA2A
S315020045F008E0A369534535D02146384610F01EFE21
S31502004600044638B3E3689E420CDB23699E4209DC0A
S31502004610B8F1000F37D14FF400332846626808A973
S31502004620FFF724FD63695345E3D1E3694BB3149B5A
S31502004630059AD907226305D5EA6B022A2DD0042AE8
S315020046402BD0013B21466362384610F0F7FD044643
S315020046500028D7D109F10109CB457FF46BAF29B008
S31502004660BDE8F08F236AB3B1149B059AA263DA07F9
S3150200467005D5EA6B022A1FD0042A1DD00133A36294
S31502004680BAE7249BD4E74FF4A0232846A26818A9C8
S31502004690FFF7ECFCC6E7249BE7E70133D2E7E965BF
S315020046A0384610F0C3FD044600289FD109F10109DE
S315020046B0CB457FF43FAFD2E7013BE0E74FF4A023BF
S315020046C02846A26818A9FFF7D1FC06AB4946009313
S315020046D0002204AB2846FFF77BFDB5F84830249943
S315020046E0C3F30E039945DBD1EB6B082BD8D0102B05
S315020046F0D6D0022BD3D0042BD1D03846296610F05F
S3150200470095FD044600287FF471AFCFE7B8F1000F9C
S31502004710D4D14FF400332846626808A9FFF7A6FCF5
S3150200472006AB01220093494604AB2846FFF750FD2B
S31502004730B5F84830149AC3F30E0399457FF440AF97
S31502004740EB6B082BACD0102BAAD01146D1E738461A
S315020047502A6610F06BFD044600287FF447AF4FF03F
S315020047600109E7E62DE9F04100266FF060440546AF
S3150200477088B0CDE901461C468B6B16460093CB6B7F
S3150200478006A8D1E9071212F061F8EB6B102B18D8C4
S31502004790DFE803F041411A171A17171709171717F7
S315020047A01717171709003068DDE90623A0EB520038
S315020047B0206071680244A1EB5301C4E901120B4463
S315020047C0E36008B0BDE8F0817368079AA3EB520371
S315020047D06360736803EB5203E360EB6B022B42D018
S315020047E013224FF400312846D6F8008047F060FEC7
S315020047F00746284608EB07052560069B35681322FF
S315020048004FF400311D44059747F052FE0544A5605A
S3150200481008B0BDE8F0813368069AA3EB5203236021
S31502004820336803EB5203A360EB6B012B0ED010220D
S315020048304FF400312846756847F03AFE079B281A5E
S31502004840C31AE060636008B0BDE8F0812846112211
S315020048504FF40031756847F02BFE079B284403444A
S315020048606060E360ADE73368069912225F1A284654
S315020048704FF4003147F01CFE0346FF1A276012224E
S315020048804FF4003128463668059347F011FE361A72
S31502004890A66096E72DE9F04F0546EDB0084606916B
S315020048A043F0A8FDB5F848300390C3F30E03012B7D
S315020048B040F29A8057A83FF0E9FF4FF4003157AA19
S315020048C0284643F05DFA26A840F036FB4FF4003145
S315020048D0284626AA43F028FBEB6B102B00F08780B4
S315020048E0082B00F0848036A840F026FB4FF4A02166
S315020048F036AA284643F018FB47A840F01DFB47AAF4
S315020049000021284643F010FBB5F84820C2F30E02F8
S31502004910002A69D04FF0000BD846531E049305F1C6
S315020049202C070DF14C090592AB6CC3F3CE33B8FBE1
S31502004930F3F203FB1283002B60D101260BF1010B6C
S315020049406B6C00210093049A2B6C404610F076FEA5
S315020049500446384610F06AFC824600B3DAF80C3098
S31502004960A34203DCDAF81030A34249DA4FF40031ED
S31502004970284657AA43F004FA4FF40031284626AADD
S3150200498043F0D2FA4FF4A021284636AA43F0CCFAD5
S315020049905146384610F052FC82460028DED1324695
S315020049A011AB41462846CDF80090FFF711FC95F869
S315020049B04B305A0600F10E81002E40F0A980DDE947
S315020049C01101D9E90023CDE90801CDE90A239DEDBC
S315020049D0087F039836A98DED3D7F40F0BFFA059B0F
S315020049E008F1010843459FD16DB0BDE8F08F9DF8EF
S315020049F0D53023F010038DF8D53074E700269FE7F3
S31502004A00002E00F0EB80DAF80460002E00F021811F
S31502004A10582130461DAA11F0DFF9012840F00A811B
S31502004A201D9AADF88821120C8DF88A21592130463B
S31502004A301DAA11F0D1F9012840F0F3809DF87420E7
S31502004A408DF8A4215B2130461DAA11F0C5F9012873
S31502004A5040F0DE801D9A669230465A211DAA11F058
S31502004A60BBF9012840F0CB801D9A5F924FF40033C8
S31502004A702846DAF8042026A9FFF7F8FA11AB012234
S31502004A8041462846CDF80090FFF7A2FB95F84B3039
S31502004A905B063DD5069843F0ADFC0023AA6B824621
S31502004AA0CDE92133CDE923332593002A00F0FC809A
S31502004AB0A96D1FFA8BF38B420EDC03F18043013B97
S31502004AC052F8233043B100225E939DF8A83162F377
S31502004AD086138DF8A83101E000235E93EB6B102B51
S31502004AE016D8DFE803F00909091509151515261563
S31502004AF0151515151515260019AC23464A462846DE
S31502004B0057A9FFF72FFE2246504657A93FF0ECFE63
S31502004B10DDE91101D9E90023CDE90C01CDE90E2326
S31502004B209DED0C7F039826A98DED2D7F40F016FA98
S31502004B3055E728461DA943F091FFDDE91DC4DDE9CD
S31502004B401F30A3EB0C03001B013301305B08400846
S31502004B50834228BF034603221C449C444FF400317F
S31502004B60284616940793CDF854C047F0A1FC2A6D47
S31502004B7015AE02FB08F202EB82025100B5F848209C
S31502004B8019ACC2F30E02013AB1FBF2F16A6D079B50
S31502004B9002EB820201EB4201EA6B2060082A00F076
S31502004BA09280102A00F096800020002301934FF491
S31502004BB080730096326802447068CDE917201A465F
S31502004BC017A80FF09DFE2346284617AA57A9FFF7F6
S31502004BD0C9FD98E7002E3FF4F2AE5BE72846DAF805
S31502004BE0082036A94FF4A023FFF740FA3246414681
S31502004BF02846CDF8009011ABFFF7EAFADFE65A2213
S31502004C004FF40031284647F053FC024621902CE728
S31502004C105B224FF40031284647F04AFC02462190B7
S31502004C2019E759224FF40031284647F041FC2190FA
S31502004C30C2B205E758224FF40031284647F038FC45
S31502004C4002462190C0F307408DF88A01ADF888210B
S31502004C50ECE658224FF40031284647F029FC064676
S31502004C60B44659224FF4003121962846C6F3074628
S31502004C70ADF888C18DF88A6147F01AFC06465B22B8
S31502004C804FF40031284621968DF8A46147F010FCB6
S31502004C9006465A224FF4003128462196669647F078
S31502004CA007FC21905F90E1E6234614210C4A21A8D5
S31502004CB00DF008FB21AB5E939DF8A83143F040034B
S31502004CC08DF8A8310AE7181A6FF00E03669A9B1A36
S31502004CD018446AE7669A03440F32D01865E700BFA4
S31502004CE04CEC06022DE9F04F2DED048B0446B1B0D3
S31502004CF0084643F07FFBB4F84830C3F30E03012B9A
S31502004D000ED9E36B8146102B0AD8DFE803F00E0EAC
S31502004D100E090E090909AA09090909090909AA00B8
S31502004D2031B0BDEC048BBDE8F08F0DF1800A504620
S31502004D3040F002F952460021204643F0F5F83022AF
S31502004D400021204647F0B4FB0746102200212046E8
S31502004D50109747F0ADFB0646112200212046109619
S31502004D6047F0A6FB0546122200212046109547F081
S31502004D709FFB8046132200212046CDF8408047F053
S31502004D8097FBE36B1090022B3E443D44384400F0FF
S31502004D903C81042BB84400F04A81012B40F04F813C
S31502004DA02C9B6769A26906EB5306074432441646F2
S31502004DB0E16DE369A7EB5107216EA3EB080303EB51
S31502004DC051035146484604F12C0829932A92CDE90B
S31502004DD0277640F0C3F8404610F028FA0546002828
S31502004DE09ED00DF1100B0DF15C0A21E0042930D0A2
S31502004DF03146B446E86AC01A6B6B1344CDE9040C1B
S31502004E00CDE906319BED009F2A680023204610A9B2
S31502004E10FFF72CF9484610A98AED009F40F09EF84C
S31502004E202946404610F00AFA054600283FF478AFB4
S31502004E3010A840F081F8002110AA204643F074F829
S31502004E40E16B6B6AAA6A02294FEA53034FEA5202DE
S31502004E50CCD1296B384603EB010CA96B3B46891A68
S31502004E60CCE710A83EF0DCFB0CAD0021204610AAD0
S31502004E7043F0C8F82946204608AAFFF759F9D4E9AB
S31502004E801423216C1A4400920846626C10F0D6FB79
S31502004E90D4E91413626C194400910646216C10463B
S31502004EA010F0CCFB089BCDE9196095E80300ADF83C
S31502004EB074301BAB83E80300484610A93EF0C2FBE0
S31502004EC004F12C031846039310F0B0F905460028A6
S31502004ED03FF426AF0DF1800A0DF1380B2FE00A9848
S31502004EE02890522130460AAA10F076FF01285FD197
S31502004EF00A9BADF89C301B0C8DF89E303046532130
S31502004F000AAA10F069FF01284AD19DF828008DF8F7
S31502004F10BC00099B9BE80300ADF8B4302BABCDE98E
S31502004F20298783E80300514648463EF08BFB294613
S31502004F30039810F083F9054600283FF4F1AE504677
S31502004F403EF06EFB52460021204643F05BF859467E
S31502004F50204609AAFFF7ECF8636D226DE8681A4449
S31502004F600092D4E9101210F069FB636D226D80463F
S31502004F701A4428690092D4E9101210F05FFB2E68D9
S31502004F8007461EB3502130460AAA10F025FF012813
S31502004F90A5D048220021204647F08AFA0B909FE7C7
S31502004FA04D220021204647F083FA0B90C0B2AEE7AD
S31502004FB04C220021204647F07BFA03460B90C0F3B1
S31502004FC007408DF89E00ADF89C3097E74C2231469B
S31502004FD0204647F06DFA03469C464D2231460B9316
S31502004FE02046C3F307438DF89E30ADF89CC047F0C8
S31502004FF05FFA03464822314620460B938DF8BC30B1
S3150200500047F056FA0B90289083E72C9BA269C0EBD7
S315020050105300E36916440344E16D226AA6EB510686
S31502005020216E013B521B1F4602EB5102C9E62C9B25
S31502005030626908EB53031344A2691644ECE73BB9D1
S315020050402C9A6769236AC5EB520247441A44AEE6B4
S3150200505000221746ABE600BF70B50B6B0E4601F198
S315020050602C056BB1284610F0DDF804462846214689
S3150200507010F08CF820460DF039FE336B002BF1D17F
S315020050802846BDE87040002110F0A8B870B50C465D
S315020050903C2104F12C0010F01FF800230122872581
S315020050A064204FF48771C4E90E3294F84C20094EFD
S315020050B0C4E91553C4E9173363F30002216560643A
S315020050C0A664236484F84C202046BDE87040102173
S315020050D042F06ABA0B80024070B51F480C4643F094
S315020050E081F8012800D070BD20460FF0F7FD054675
S315020050F020460FF0EFFD1A2D064620D01D2D16D1A3
S3150200510090F94B30002BEEDAFEF766FF3046FFF7DA
S31502005110E5F996F84C302146DB07304614D5FFF701
S31502005120E1FD21463046BDE87040FFF7B3BB182DBE
S31502005130D9D12046BDE87040642143F07DB990F98B
S315020051404B30002BE0DA70BDFFF7A4FB2146304658
S31502005150BDE87040FFF7C6BDCC12070243F05EBA47
S31502005160F0B5002187B0054648F058F9044608B361
S315020051705A224FF48021284647F09AF903465B22C9
S315020051804FF48021284604931D4647F091F90346C1
S31502005190204600261C4604936FF0604702F066FB29
S315020051A0234601462A4604A8CDE90176009611F067
S315020051B04DFB049807B0F0BDF0B55A2285B00E46F5
S315020051C00021054647F074F904465A224FF480211D
S315020051D02846009447F06CF903465C2200930021AE
S315020051E02846E468DF6847F063F93B19044603EB97
S315020051F0D3732846AF69009404EB630443F0ACFB17
S3150200520000EBD07004EBD47207EB6003A3EB6203EE
S315020052101C44736028466946F46043F0F5FA009A26
S31502005220029B3260B36005B0F0BD00BF2DE9F04FBE
S31502005230B9B006460FF052FD054630460FF04AFD5C
S315020052401A2D044604D01D2D1BD039B0BDE8F08FAF
S31502005250304643F0CFF8054618A92046FFF7ACFFC3
S315020052601CA83FF0FBFE20461CAA4FF4802142F008
S3150200527089FB284618AA1CA93FF04CFF39B0BDE8A5
S31502005280F08F304643F0B6F806461CA83FF0FEFA09
S315020052901CAA4FF48021204642F072FD06F1180541
S315020052A0204610A914AFFFF787FF2946384610AAF1
S315020052B00EF024FF0028C8D00021204648F0AEF8A0
S315020052C0814602F0D3FADDE92A3B80462046DDF824
S315020052D090A0059343F03AFB059B5246CDE9003078
S315020052E001205B46414602900AA811F0AFFA204619
S315020052F043F032FB00215A228046204647F0D8F876
S315020053008346CDF860B0DBF80C20D9F8183002EBF2
S31502005310D27203EB6203A26908EBD87802EB680249
S3150200532048464FEA680AA3EB020843F015FBDBF88E
S315020053300C300B9AC01A0028C4BF4FEA883898FB73
S31502005340F0F8249BA169DB682046D21A08FB02F218
S315020053500AEB010803EBD373002108EBA2383022D3
S31502005360A8EB630847F0A4F88246122200212046E1
S31502005370CDF860A047F09CF8034613220021204690
S315020053801893059347F094F80B9A189008EB020EBF
S31502005390059B62699DF8BB101A44E3695244181AC8
S315020053A0A0EB0A00CDF824E0CDF81C800692089006
S315020053B09DED067F41F001018DF8BB100DF1600BEA
S315020053C095E80F008BE80F0097E80F0085E80F00BD
S315020053D048468DED0C7F02F049FA03460CAA304688
S315020053E01CA923933FF080FA9BE80F0085E80F0083
S315020053F02BE700BFF0B5836BC56A4FEA530CB5FBCA
S31502005400F3FE036B0EFB0CFCB3FBFEF50EFB153332
S315020054106344B3FBFEF503630EFB1533634483B0AB
S3150200542043635A220021044647F042F806465C22AC
S3150200543000212046019647F03BF805462046F768CC
S31502005440019543F0CDFA06460021204647F0E6FFD5
S3150200545007EBD773216B06EBD6765B10C3EB6603BD
S315020054603D4401FB153103B0BDE8F04043F0D6B828
S315020054702DE9F0478A4696B00021044647F0CEFF52
S31502005480002850D0064602F0F1F9002102463046C5
S3150200549047F08CFB022849D0032865D0002130460C
S315020054A043F0A4F85A220021204647F001F80546A7
S315020054B05C2200212046009546F0FAFF80462046EF
S315020054C0CDF80080ED6843F08BFA6422002107468E
S315020054D0204646F0EDFF81460090BAF1000F4CD00F
S315020054E0A84405EBD57507EBD7776D10C5EB6705B5
S315020054F040B3236B684603FB18550EF033FC314B61
