S0120000726E5F7261385F6673642E737265632C
S3150200000000240522C9FB040295F90402C5FB040279
S31502000010C5FB0402C5FB0402C5FB0402C5FB0402C0
S3150200002000000000000000000000000085C204027B
S31502000030C5FB0402000000009DC2040205C30402BF
S3150200004061DC0402F5DD040219DF0402FDDF0402AD
S3150200005061E204027DE50402BDEF0402DDEE040264
S3150200006061EF040251D10402A5D10402F9D10402BE
S31502000070DDD2040241D3040295D30402000000003B
S315020000800000000000000000000000000000000068
S315020000900000000000000000000000000000000058
S315020000A00000000000000000000000000000000048
S315020000B00000000000000000000000000000000038
S315020000C00000000000000000000000000000000028
S315020000D00000000000000000000000000000000018
S315020000E00000000000000000000000000000000008
S315020000F000000000000000000000000000000000F8
S3150200010000000000000000000000000000000000E7
S3150200011000000000000000000000000000000000D7
S3150200012000000000000000000000000000000000C7
S3150200013000000000000000000000000000000000B7
S3150200014000000000000000000000000000000000A7
S315020001500000000000000000000000000000000097
S315020001600000000000000000000000000000000087
S315020001700000000000000000000000000000000077
S315020001800000000000000000000000000000000067
S315020001900000000000000000000000000000000057
S315020001A00000000000000000000000000000000047
S315020001B00000000000000000000000000000000037
S315020001C00348044B834202D0034B03B118477047DE
S315020001D0A80D0022A80D002200000000064B0749C8
S315020001E0C91A891048BF0131491003D0044B0BB11B
S315020001F001481847704700BFA80D0022A80D00222B
S315020002000000000010B5064C237843B9FFF7D8FF6B
S31502000210044B13B10448AFF300800123237010BDD1
S31502000220D80D00220000000010BA060208B5054BE0
S315020002301BB105490548AFF30080BDE80840FFF74A
S31502000240CDBF00BF00000000DC0D002210BA06027E
S31502000250002200B5037983B001929A1E012A04D9BD
S31502000260012B19D003B05DF804FB0F4B012219686C
S315020002700E4801AB51F096FC0028F3D0019B002BEF
S31502000280F0D04FF080520A4B5A60BFF34F8FBFF344
S315020002906F8F03B05DF804FB034B02221968034813
S315020002A001AB51F07FFCE7E7A4100422E50005024A
S315020002B000ED00E030B50C46944685B064BA0023E2
S315020002C0032203A9ADF80C408DF80EC04DF000FBD9
S315020002D0044610B1204605B030BD4FF47A75094880
S315020002E0234600680122032100954FF007FEC3074B
S315020002F0F0D410F0020F0CBF14241224204605B0CD
S3150200030030BD00BFA41004222DE9F0410C4684B092
S3150200031064BA16460123022203A9ADF80C4005462B
S315020003204DF0D6FA044618B1204604B0BDE8F08175
S315020003304FF47A77DFF8488003460321D8F80000A5
S31502000340012200974FF0DAFDC10712D5234601229A
S31502000350314628464DF08CFA04460028E4D103467D
S315020003600122D8F80000032100974FF0C7FDC3070A
S31502000370DAD4820701D51224D6E71424D4E700BFC3
S31502000380A41004222DE9F0430C461D4685B064BA3A
S3150200039017460123022203A9ADF80C402E46054654
S315020003A04DF096FA044618B1204605B0BDE8F08332
S315020003B04FF47A78DFF84C9003460321D9F800000F
S315020003C00122CDF800804FF099FDC10713D52346CF
S315020003D03246394628464DF04BFA04460028E3D108
S315020003E003460122D9F800000321CDF800804FF020
S315020003F085FDC307D8D4820701D51224D4E7142475
S31502000400D2E700BFA410042200B50A4B83B01868D5
S3150200041001A950F039F948B1019B3BB14FF0805226
S31502000420054B5A60BFF34F8FBFF36F8F03B05DF872
S3150200043004FB00BFF010042200ED00E010B51D4CD5
S31502000440002240F6012120464DF056F8042240F2E1
S315020004500A5120464DF074F8012164204FF05AFAF1
S31502000460002240F20A5120464DF046F8012164204E
S315020004704FF050FA012240F6012120464DF03CF899
S315020004804FF47A710A204FF045FA002240F20A51DF
S3150200049020464DF031F84FF47A7132204FF03AFA95
S315020004A02046BDE810404FF4804240F20A514DF01A
S315020004B047B800BFF410042210B5044682B0FFF715
S315020004C0BDFF01225D2120464DF0B4F908B102B00C
S315020004D010BD042348F2401120466A46FFF752FF38
S315020004E00028F4D19DF90000393818BF012002B066
S315020004F010BD00BF2DE9F043054683B00C46FFF759
S315020005009DFF01225D2128464DF094F910B103B0FA
S31502000510BDE8F083042348F2401128466A46FFF7F5
S3150200052031FF0028F3D19DF90030392B3DD14FF030
S31502000530B80E07464EF001E01D4A02F1010812F814
S31502000540013F3B44DFB20FF007C04646C6F50049FD
S3150200055008F1B80809F1470909EB0601284616F819
S31502000560012B89B2FFF7A6FE0028D0D14645F3D16A
S315020005707A4248F2FF012846D2B2FFF79BFE0028D4
S31502000580C5D101224FF401412846FFF793FE002808
S31502000590BDD1024648F240012846FFF78BFE0028ED
S315020005A0B5D120464DF02CFEB1E71220AFE700BFD1
S315020005B0072C060270B508460C464AF0A7F906460D
S315020005C045F048FC0546304645F04AFC29460246B7
S315020005D0204645F0BFFA012120462EF0C9FB2046EF
S315020005E044F00CFA0546204649F0DEFF43F018F9BE
S315020005F002460F4E02EBD27231462846521045F0A1
S31502000600A9FA284600212EF0B3FB02230021284630
S315020006101A462EF0B9FB204644F0F0F904460121B1
S315020006202EF0CAFB31462046BDE8704045F0BEBA00
S315020006306400002010B50C460C4A2046114645F0CF
S3150200064089FA002320461A46094945F0E1F8204670
S31502000650802144F0E1F92046032147F037F920468C
S31502000660BDE81040032147F03FB900BF64000020F7
S31502000670750600022DE9F04383B0054613F048FFE4
S315020006800446284613F040FF0B2C02D003B0BDE807
S31502000690F08307462EF02CFC10B1037A012BF5D01D
S315020006A0384645F0E3FB0646384645F01DFC05464E
S315020006B06946384647F0F0FADDE9002306EBD671C3
S315020006C002EB610805EBD57203EB620998FBF6F8BB
S315020006D099FBF5F9002406FB08F805FB09F93846EB
S315020006E04AF058F9A04219D9214638464AF012F979
S315020006F0054645F017FB0646284645F041FBB04540
S3150200070004F10104EBD18145E9D1FD6200222021E9
S31502000710384695F82C4045F059F800E00F2421465A
S31502000720384647F0C3F803B0BDE8F08310B50C466F
S31502000730044A2046114645F00DFA2046BDE810400F
S3150200074047F070B864000020704700BF486B10B5D0
S315020007500C4618B111F002FF00236363A06B18B1B7
S3150200076011F0FCFE0023A363206B18B111F0F6FE14
S315020007700023236310BD00BF2DE9F04F2DED048B3E
S315020007805A2297B00021044649F016F905465C2222
S3150200079000212046129549F00FF98146E06AE76C7E
S315020007A0CDF8489006F09AFC694B39461B68834699
S315020007B09847684B0BEB00021B68002180461046E7
S315020007C00293039298470D280646D5F80CA000F22C
S315020007D0BB8042F20143C34013F0010F0CBF014636
S315020007E020210022284630F049FE394610AA074643
S315020007F0E06A06F075FCE36A1846019306F06EFCA1
S31502000800019B02460021184649F054FCE16A109BFE
S315020008104A691344CA693B44934228DD94F870102E
S3150200082011F0080123D1032821D0119BD1444B4456
S31502000830109101911193002E00F08880464B039887
S315020008401B68984780440199029B0BEB0800984766
S315020008500D28014606D842F20143C34013F0010FA8
S3150200086018BF20210022284630F008FE0746C4F8A9
S31502000870608030224FF4C021204649F09DF805469B
S3150200088010224FF4C0212046129549F095F80346EE
S3150200089011224FF4C021204603EB0509129349F0B9
S315020008A08BF8064612224FF4C0212046129649F0D2
S315020008B083F803464FF4C0211322204603EB050BAF
S315020008C0129349F079F8A046109B2E44A3EB0B0233
S315020008D00C92119A054416445644A2EB0902013EB3
S315020008E01D440D920F963D44E36A013D0E9512900A
S315020008F0D3E90523CDE90823CDE90A239DED085F57
S31502000900B8ED147F26EF44689DED0C9F12A981ED88
S31502000910007F204645F03CFD88ED009FE36A12A960
S31502000920D3E90523CDE90532049207939DED047FB1
S3150200093026EF4868204681ED007F45F029FD17B075
S31502000940BDEC048BBDE8F08F01464AE7202189E71A
S31502000950D8610602E0610602E861060290F864C008
S315020009600CF001028A421CD00A1E18BF012210B5E1
S3150200097062F3000CC46A88B080F864C0D4E9052327
S31502000980CDE90132009203939DED005F90ED147F55
S3150200099026EF446804A981ED007F45F0F9FC08B012
S315020009A010BD7047F0B5642297B04FF4C0210546DA
S315020009B049F002F8009058B92846124912F07CFE16
S315020009C095F8643043F0010385F8643017B0F0BD42
S315020009D00446684612F0FEFD0A4B002101930127E8
S315020009E04FF0FF334FF00046074A6846CDE90976D5
S315020009F000950C940F940B910892119312F004FE39
S31502000A0017B0F0BD5D0900023938010270B505461E
S31502000A1013F07EFD0446284613F076FD2E3CA4B262
S31502000A20064649F073FF012C00D970BD0546002128
S31502000A30304606F067FA2846FFF79EFE2846BDE8CE
S31502000A407040FFF7AFBF00BF2DE9F04F814687B078
S31502000A50C06A06F043FB254B1B68984780B3D9F85A
S31502000A6038A00746BAF1000F2DD0504611F028FAE9
S31502000A7000FB07FB06460BF1010011F053FD0025B2
S31502000A8080460446204632465146013511F080F929
S31502000A90AF423444F6D1002308F80B304146D9F868
S31502000AA02C0006F02FFA404611F058FD4846104930
S31502000AB012F002FE484607B0BDE8F04FFFF75CBEF3
S31502000AC007B0BDE8F08F51465A22484648F074FFF7
S31502000AD0534642F222026946009030F0C5FC054AAE
S31502000AE0054B002814BF92469A46BEE7D06106021D
S31502000AF049070002DC2C0602D82C0602006890F890
S31502000B0070305B0700D47047FFF79EBF30B5436C69
S31502000B10044697B02BB990F870305B0719D417B01A
S31502000B2030BD684612F056FD00254FF00041012205
S31502000B300A4B0B4800940193646C0A4B0890684672
S31502000B40CDE909510C940B92049312F05DFD17B096
S31502000B5030BD17B0BDE83040FFF776BF4907000247
S31502000B6039380102FD0A0002C36C8B4279D0F0B516
S31502000B703C4B83B00446C06A0D461E6806F0AEFAC8
S31502000B80B047002D05EB0003B8BF1D46A842064636
S31502000B903EDA2046E66446F045FE5A220021204609
S31502000BA048F00AFF054631466A46E06A009506F0B5
S31502000BB097FA2046EE68019D46F0D2FE85424ADB50
S31502000BC0204645F091F9019B07462046F51846F066
S31502000BD0C7FE2B1ABB4230DC2046009D46F040FF82
S31502000BE0854224DB204645F041F9009B0746204614
S31502000BF0F51846F035FF2B1ABB4210DC009B204647
S31502000C00A364FFF7CFFE2046FFF7B6FD03B0F0BDA3
S31502000C1047F6FF739D420CBF06462E46B9E700997A
S31502000C200122C91B2046314447F08AF9E6E7012230
S31502000C302046009947F084F9D4E701990122C91B9D
S31502000C402046314447F092F92046009D46F008FFBF
S31502000C508542C7DAEBE701222046019947F086F979
S31502000C60AEE77047D061060270B50120002540F25A
S31502000C70DC5691F8643091F8702023F0030343F0B8
S31502000C80030322F00E0281F8643081F87020C1E974
S31502000C900D55C1E90F55C1E90B554E64C8648D6403
S31502000CA008460C4606F022F91049E06244F07EFF3F
S31502000CB0E06A0F4906F026F92B462A460D49E06AF4
S31502000CC044F0A6FD20464FF4806143F0A5FE20467F
S31502000CD04FF4006143F0ECFE20462946FFF744FF3D
S31502000CE02046BDE87040FFF75DBE00BF64000020ED
S31502000CF02C4306020D0A000290F8643061F34103A8
S31502000D0080F86430704700BF90F87030C3F3C002B9
S31502000D108A422CD070B5044661F3C303C06A0D46FD
S31502000D2084F87030A9B16FF0404144F03FFF10499A
S31502000D30E06A002249F06EFA6FF04041204644F024
S31502000D404DFF00232046BDE870401A46194647F07B
S31502000D5023B9074944F02AFF2A462946E06A49F0A0
S31502000D6059FA2A460221204648F0F8FEE9E770477A
S31502000D706400002090F870305B0701D5406B704725
S31502000D80C06A06F0ABB900BFC06C704790F870003D
S31502000D90C0F3C000704700BF38B50446C06A06F00B
S31502000DA027FB4FF6FF7398420BD0E06A4FF6FF71AE
S31502000DB006F08CF9E06A4FF6FF71BDE8384006F09E
S31502000DC089B90546E06A06F015FBA842EDD138BDA1
S31502000DD001B3F0B590F8703007465A070C4683B057
S31502000DE049D4FB6BBBB1002294F9003001927BB16E
S31502000DF0324A334B16681D6801A92046B047A847F8
S31502000E000146384600F07EF8019BE356002BF3D1EB
S31502000E1003B0F0BDFEE73B6C002BE4D12146384619
S31502000E2000F052F80128F3D1D7E90B0333B106F0EB
S31502000E3055F990F90030002B3BD0F86A2246F96C3E
S31502000E4006F0DAFA3846FFF7A7FF97F870305B0725
S31502000E5017D41C4B20461B68FC6C98470146384643
S31502000E602144FFF781FE00222021384603B0BDE867
S31502000E70F04044F0ABBCFFF7E7FDFB6B002BB2D1B1
S31502000E80C9E7786B11F01CF80546204611F018F8F0
S31502000E9001462944786B013111F06AFB786338B157
S31502000EA02246F96C15F050F93846FFF72FFED0E7C7
S31502000EB0FEE7384645F098FABFE700BFE061060252
S31502000EC0E4610602D061060270B50C4600230C4DA1
S31502000ED02121224606462B6044F078FC286830B170
S31502000EE090F900304BB1214610F0FEFF08B90120FF
S31502000EF070BD30462968FFF76BFF002070BD00BF4A
S31502000F00F40D0022F0B590F87020044610070B4647
S31502000F1085B003D50A2925D00D2923D000252046E0
S31502000F2002A9029300930395FFF7CEFF012819D178
S31502000F30384B29461E686846B047236C0546002B87
S31502000F4052D1E06B80B190F900306BB1002301936E
S31502000F5005E001A9B047854206D0E06B019BC35666
S31502000F60002BF6D105B0F0BD94F870305A0737D48D
S31502000F70D4E90B0333B106F0B1F890F90030002B37
S31502000F803FD0E06AE16C02AA06F036FA2046FFF785
S31502000F9003FF94F870305B0715D5606B10F090FF75
S31502000FA0054602A810F08CFF01462944606B013108
S31502000FB011F0DEFA606390B1E16C02AA15F0C4F892
S31502000FC02046FFF7A3FDE16C20460131FFF7CCFD79
S31502000FD000222021204644F0F9FB05B0F0BDFEE7D1
S31502000FE02046FFF731FDC3E70B4A94F870301268CA
S31502000FF05907174609D5606BB847236C9842A0D3A8
S31502001000B0E7204645F0F0F9BBE7E06A06F066F87D
S31502001010F2E700BFE0610602D0610602C36C03B9C3
S3150200102070477F2330B583B001A90446ADF804307A
S31502001030FFF74AFF0128054601D003B030BDE06A3A
S3150200104006F04CF82A460546E16C013915F0BAF865
S315020010502946E06A05F056FF2046FFF79DFE236B00
S315020010602BB1E06A06F03AF890F900300BB394F827
S315020010707030E16C5B0710D501390122606B15F007
S31502001080A1F8656B284610F01BFF01462846013180
S3150200109011F06EFA60B1E16C606320460139FFF728
S315020010A063FD00222021204644F090FB03B030BDB0
S315020010B0FEE7204645F098F9D9E700BF002950D04F
S315020010C0F0B5074683B00C46FFF766FEFB6B002BB6
S315020010D048D02D49F86A05F015FF47F6FF713846E4
S315020010E0FFF742FD97F87030590702D500227B6B55
S315020010F01A70002294F9003001927BB1234A244BE4
S3150200110016681D6801A92046B047A8470146384619
S31502001110FFF7F8FE019BE356002BF3D13B6B2BB195
S31502001120F86A05F0DBFF90F900304BB397F87030A0
S315020011305A070ED5786B11F011FA204610F0EAFE26
S315020011407863E0B197F870305B0702D53846FFF74F
S315020011507BFC00222021384603B0BDE8F04044F073
S3150200116035BBFEE73B6C002BB3D12146F86A05F08E
S31502001170C9FE47F6FF713846FFF7F6FCCEE7FEE7F3
S31502001180384645F031F9D1E72C430602E061060202
S31502001190E4610602C16C0131FFF7E6BCC16C01B91C
S315020011A070470139FFF7E0BC30B5054685B0C16C22
S315020011B002AAC06A05F094FF5C220021284648F084
S315020011C0FBFB04465A2200212846019448F0F4FB10
S315020011D00346A96C039A0291D968E86A0C44013461
S315020011E014440193039444F03BFE844201DB05B0B0
S315020011F030BD012202A9E86A06F02CF8014628460B
S31502001200AC6CFFF7B1FCAC6405B030BDF0B504467A
S3150200121085B0C16C02AAC06A05F062FF5C22002199
S31502001220204648F0C9FB05465A2200212046019570
S3150200123048F0C2FB0646F768039BA06C3D44013D9D
S315020012405B1B012202A90290E06A0393019606F053
S3150200125001F801462046A56CFFF786FCA56405B099
S31502001260F0BD00BF2DE9F047B248BCB00D4644F0D0
S315020012703DFA012802D03CB0BDE8F087284613F0BB
S3150200128047F90446284613F03FF9631E04461C2B11
S31502001290F1D801A252F823F00D1300020D13000239
S315020012A00D13000277120002771200027712000273
S315020012B0771200020D130002771200027712000263
S315020012C0771200027712000277120002EF1500026F
S315020012D077120002E5150002771200027712000269
S315020012E077120002771200027712000277120002CA
S315020012F07712000277120002771200023D150002F1
S315020013007712000277120002151400022DF0F0FD8A
S3150200131004460028AFD0284613F0F6F890F8643059
S3150200132006469F07A7D520462DF0F4FD0228A2D037
S3150200133020462DF0EFFD04289DD0F06A20A944F046
S31502001340E7FC204604A92DF0F1FD204606A92DF062
S315020013501BFE049B002B8EDB059A002A8BDBDDE944
S3150200136020011B1A521A2846CDE90A3213F0D0F888
S315020013700446F06A44F06EFD0A9B0122002BF56AD0
S31502001380C0F29881984200F3B78147F6FF7796F844
S315020013907030980703F0010140F18581002940F081
S315020013A09981002A40F08281012C7FF464AF4FF6C6
S315020013B0FF7243F001034FF440713046B76686F878
S315020013C07030F26643F074FB39463046FFF7CCFBC9
S315020013D096F87030D9077FF54EAFD6E91A218A42C0
S315020013E06B6C40F26981994202D1AB6C9A4205D08C
S315020013F06964B36E3046AB6444F0F6FF032C02D048
S31502001400082C7FF438AF96F8703023F0010386F883
S31502001410703030E7284613F077F80446284644F041
S315020014206DFA0646E06A05F059FE94F86430054600
S31502001430DB077FF520AF20A841F040FB4FF4C02127
S31502001440204620AA43F022FDE36A94ED147FD3E9F5
S315020014500523CDE90023CDE902239DED005F26EFAA
S31502001460446806AF87ED007F30463A4620A941F030
S3150200147081FB30224FF4C021204648F09DFA824675
S3150200148012224FF4C0212046CDF828A048F094FA43
S3150200149003464FF000094FF4C021102220460AEB02
S315020014A003080A9348F088FACDE904990A90226E55
S315020014B0214B15441B688244284698472946024612
S315020014C004A810F065FC069B582243440693079B2A
S315020014D0494653440793E06A48F06EFA05460AA85D
S315020014E00A9540F003FF4FF4C02120460AAA43F0B2
S315020014F0CBFE9DF8A0301FFA85F8022BC5F30745EF
S315020015000AD89DF85620BDF8543008EB054803EB7F
S31502001510024343453FF4AFAE9DF8743004AC43F04A
S3150200152040033A4630460AA911948DF8743040F0C9
S315020015300BFFA0E688520602E8610602284612F070
S31502001540E3FF0446284644F0D9F90546E06A05F069
S31502001550C5FD90F90030002B7FF48DAE236B002B76
S315020015603FF489AE93F90030002B3FF484AE20A8F5
S3150200157040F0BCFE20AA4FF40021204643F084FE30
S3150200158094F870301A0705D59DF8CB3043F0010365
S315020015908DF8CB3012220021204648F00DFA06467D
S315020015A01022002120460A9648F006FA0746302203
S315020015B0002120460A9748F0FFF901460A9194ED68
S315020015C0057F0DF128087A18404631448DED0A7FD1
S315020015D012F09EF9236B4246284620A9279340F033
S315020015E0B3FE48E63CB0BDE8F047FFF7DBB9284654
S315020015F012F092FF0168142916D801290ED98B1E02
S31502001600122B0BD8DFE803F045210A0A0A0A1B0A45
S31502001610390A0A0A0A0A0A332D29480020463CB02A
S31502001620BDE8F047FFF76EBC7F29F7D1E56C20468F
S31502001630691CFFF799FAE36C9D423FF41CAE204603
S315020016403CB0BDE8F047FFF7E9BC47F6FF7120461C
S315020016503CB0BDE8F047FFF787BAE16C204601319E
S31502001660F6E720463CB0BDE8F047FFF79DBD2046B1
S315020016703CB0BDE8F047FFF7C9BD94F870301B07D0
S31502001680CCD50022232120463CB0BDE8F04744F0E9
S315020016909DB800212046DBE7E16C00293FF4EBAD63
S315020016A020460139D4E700297FF48EAE012C7FF45F
S315020016B0E2AD89E600276AE62BD29A4203D1AB6CE9
S315020016C099423FF49BAE6A64F36E3046AB6444F0D3
S315020016D08BFE93E6022C2CD0032C02D0082C7FF42E
S315020016E073AE30464FF4407143F096F996F8703077
S315020016F0D8077FF5C0AD67E60AA9284605F0AAFD18
S315020017000AA90746F06A05F0A9FD80F00102D2B2E5
S315020017103DE64FF6FF72934203D1AA6C9A423FF41A
S315020017206DAE4FF6FF733046C5E9113344F05CFEE9
S3150200173064E6F76648E600BF2DE9F0470D4682B03B
S3150200174001210746904649F0E5F80021044638464D
S3150200175049F0E0F800210646384649F0DBF83349FD
S3150200176049F01CF9034638469D4203F1FF3328BF70
S315020017701D4646F057F87CB397F8301011F00C016D
S315020017802DD11422204648F017F981462046CDF87D
S31502001790049044F0A9FB00EB09014246204605FBF2
S315020017A001F146F0E3FB00213046204A49F0C2F837
S315020017B088B10024DFF874802A1BB2FA82F2012172
S315020017C05209013443F0D8F942462146304649F0DF
S315020017D0B1F80028F0D1FD6202B0BDE8F08715220B
S315020017E00021204648F0E8F882462046CDF804A0BB
S315020017F044F03CFB272200218146384648F0DCF8BB
S31502001800C3B2012B019008D009EB0A0142462046D9
S3150200181005FB01F146F094FBC5E7D1446942424615
S31502001820204601FB09F146F08BFBBCE74C5D060244
S3150200183010B50B480C4643F059FF012800D010BDE5
S31502001840204612F065FE034620461C4612F05CFE58
S315020018502E2CF4D1BDE810400022C16AFFF76CBFFE
S31502001860AC52060270B584B0044612F04DFE05462F
S31502001870204612F04DFE0446284649F047F8302C21
S31502001880064603D00B2C08D004B070BD0022C16AF4
S3150200189004B0BDE87040FFF74FBF2DF029FB10B131
S315020018A0037A012BF0D0284602A946F0F5F996F8FC
S315020018B03030284613F00C0F27D044F0D7FA2722EF
S315020018C004460021304648F077F8C3B2012B029B4A
S315020018D004EBD4720CBFC3EB620303EB620393FB0C
S315020018E0F4F40190F56A24EAE4742DF001FBB0B138
S315020018F0012221463046FFF71FFFAC42C4D0002228
S315020019002021304643F062FFBEE744F0EDFA039C25
S3150200191000EBD07304EB630494FBF0F4E2E70246B7
S3150200192021463046FFF708FFE7E700BFF8B54B1E32
S315020019300D460446072B05D8DFE803F0905A0456F5
S315020019400404041D002148F0E5FF01210646204655
S3150200195048F0E0FF94F8303005F00C0713F00C0F56
S3150200196014BF012200223B1E18BF01239A4279D1DD
S3150200197084F83050F8BD09212DF0FAF900212046ED
S3150200198048F0C8FF01210646204648F0C3FF074635
S31502001990394944F00BF9012138462DF00DFA0021A0
S315020019A030462DF0E5F9002138462DF0E1F9032104
S315020019B0384645F08BFF0021384645F095FF94F8EE
S315020019C0303013F00C0FD3D1204648F0EDFD41F034
S315020019D027FF014601EBD17230462749521044F0E7
S315020019E0B9F884F83050F8BD01212DF0C1F9C5E7E8
S315020019F008212DF0BDF90021204648F08BFF012178
S31502001A000646204648F086FF07461B4944F0E6F89C
S31502001A10012138462DF0D0F9012130462DF0A8F9E2
S31502001A20012138462DF0A4F90021384645F04EFF33
S31502001A300321384645F058FF94F8303013F00C0F66
S31502001A4096D0204648F0B0FD41F0EAFE0146304607
S31502001A50094A44F07FF884F83050F8BD00212DF091
S31502001A6087F9C8E7204648F09FFD41F0D9FE0146B6
S31502001A70002FECD0AEE700BF6400002070B50C4624
S31502001A800026154A2046114684F8306044F062F872
S31502001A90204642F0B3FF204642F0B0FF05463146EB
S31502001AA02DF066F93346324628460C4943F0B0FE1D
S31502001AB03146284645F0E4FE20460421FFF736FF6C
S31502001AC02846802142F0A8FF2846BDE870404FF420
S31502001AD0806142F0EDBF00BF64000020651800027D
S31502001AE02DE9F04FD0F82CA08BB001FB0AF9CDE915
S31502001AF00523D368179A1344189A03EB02080AEBD4
S31502001B00090399454AD2DDE9153207464E464FF09A
S31502001B10000C13440793786BB20050F826E0BEF12E
S31502001B20000F34D0FC6B0AF1FF33634554F82C10D6
S31502001B3004EB8C0B50D9043A104401220CEB02043C
S31502001B409C424FF00005A3EB0C03644688BF134684
S31502001B500BE01268D2070CD55BF8042F013B05F1A6
S31502001B600105114404F1010403D050F8042F002AA0
S31502001B70EFD1DEF8003013F0020313D0059B179A5B
S31502001B80DB681344189A13449845B8BF9846013641
S31502001B900AEB0903B3420CF1010CBCD840460BB068
S31502001BA0BDE8F08F0293079B08A8C91A149B0191FE
S31502001BB000930EF10801DDE9052314F061FA179A84
S31502001BC0099BA4461344189AD7F82CA013449845A7
S31502001BD0B8BF98462E44DAE764460025C9E700BF37
S31502001BE02DE9F04100251C4606460F46904682B076
S31502001BF01D6052B142F001E02946F26B52F8210013
S31502001C000131054425600FF009C027220021304624
S31502001C1047F0D2FEC3B2012B01903BD0304645F0CD
S31502001C2093FE236812221B1A23600021304647F0D6
S31502001C30C3FE2368019003442360F26B52F8282006
S31502001C401344013BA3600023636057B147F001E0F0
S31502001C501A46B16B51F8221001320B4463600FF041
S31502001C6009C000211022304647F0A6FE03466268EC
S31502001C7030461A446260019345F06CFE6368181A96
S31502001C806060B36B53F8273018440138E06002B045
S31502001C90BDE8F081304645F057FE236803442360D1
S31502001CA0304644F0D7F823681322C51A002130467D
S31502001CB047F082FE2B1AA360F26B019052F828209D
S31502001CC09B1A2360BFE700BF30B585B0D0E910216B
S31502001CD06B460446FFF784FF0099002919DB20466C
S31502001CE0029D44F0B7F8854227DC019A002A07DBF9
S31502001CF02046039D44F0B4F8854211DC05B030BDA0
S31502001D00012300212046524205B0BDE8304046F08C
S31502001D10B7B8012300222046494246F0B1F8E4E76B
S31502001D20204644F09DF80246012300212046521B1C
S31502001D3005B0BDE8304046F0A3B8204644F08AF824
S31502001D400146012300222046491B46F099F8CCE7BA
S31502001D502DE9F04FADF5177D044612F0D5FB83460B
S31502001D60204643F0CBFD0346183306901A4624A8B4
S31502001D700BF114011C460E9311F0DAFD18B90DF59C
S31502001D80177DBDE8F08F28AD94E80F0085E80F00B7
S31502001D9024AB0FCB84E80F0030220021584647F0CF
S31502001DA00BFE05461022002158467A9547F004FE9E
S31502001DB00446112200210B9058467A9447F0FCFD06
S31502001DC00346122200210C9058467A9347F0F4FDFE
S31502001DD0034600211322099058467A9347F0ECFDF8
S31502001DE002467A92DBF828204D4BBBF82860134056
S31502001DF043F40023CBF828300A905EA8119640F0EF
S31502001E005DFE4FF4A0215EAA584643F03FF834A87F
S31502001E1040F06CFA4FF4A02134AA584643F034FA43
S31502001E209BF82A30ABF8286023F008038BF82A3097
S31502001E30DBF81830584623445C1E45F08BFD00271C
S31502001E40231A2B4458462F932C972E9745F07CFD48
S31502001E50272282463946584647F0AEFD7A90DBF88D
S31502001E603040C6B2002C00F09181CDF83CA010950E
S31502001E70B2463D460497DBF83830049A2F9953F858
S31502001E80222001318B1803F1FF3E279B2D919942A7
S31502001E90CDF8BCE000F37A81BAF1010F00F0DD81E2
S31502001EA00999DBF814300B440F99013B5B1A109920
S31502001EB00B442E93DBF82C00002800F061814FF0D2
S31502001EC00008DBF8341002EBD27253100D9351F86E
S31502001ED025300646474670464FEA8509002B00F034
S31502001EE034811B68DBF83C20BAF1010F059302EB43
S31502001EF0870C00F033812E9B01332C9352F8272056
S31502001F001344013B2E93731EBB4240F23381A9F167
S31502001F1004023C464FF000088646DB1B11440AE0E9
S31502001F200000F7FF2E9A013B02442E9208F10108A7
S31502001F3004F1010414D051F8042F8AB11268D007B3
S31502001F400ED5BAF1010F5CF8040FEBD12C9A013BC6
S31502001F50A2EB00022C9208F1010804F10104EAD175
S31502001F607046259B01358342454400F3E180DDE955
S31502001F702D6EDDF8B0C0CDE9176ECDF858C01990B8
S31502001F809DED167F9DF8C1218DED1C7F510702F054
S31502001F901F030BD5DBF8142009990A44624505DABA
S31502001FA06F9A02EBD272ACEB62021C929A070BD5C5
S31502001FB0DBF818200B990A44B24205DA6F9A02EB53
S31502001FC0D272A6EB62061D961E070FD5DBF81C2001
S31502001FD00A99521A013A724508DD6F9A02EBD276D5
S31502001FE002F0010202EB660272441E92D9070FD575
S31502001FF0DBF820300C9A9B1A013B834208DD6F9B6B
S3150200200003EBD37203F0010303EB620303441F9352
S31502002010DBF84430049A934204D1DBF84030BB42E9
S3150200202000F0D2800DF5F47870225EA9404649AEE2
S315020020300FF0AEFE5422304634A90FF0A9FE049BDF
S31502002040414606981CAACDE97C37C6E9023740F01C
S3150200205091FDDBF8343053F80930002B66D012229A
S315020020604FF4A021584647F0A7FC034613224FF42B
S31502002070A02130935846089347F09EFC034610224F
S3150200208030934FF4A0215846079347F095FC8046BB
S3150200209011224FF4A021CDF8C080584647F08CFC9F
S315020020A02C9A089B2E991344079A1293891A2D9AF1
S315020020B0309090442F9ACDE91381121A15929DED14
S315020020C0127F8DED207FCB1A03F1010C059BDBF805
S315020020D03410C3F3400E03F0020351F809100593BE
S315020020E0F36BCDE901CE0791B16B3C9A009107994A
S315020020F01AA8083113F0C4FF059B30AF0DF1800812
S315020021006BB91B9B0D992D9A03EBD3735B105B4244
S315020021100A44D118D21AC8F80410C8F80C20384656
S315020021202CAA24A911F004FC002838D1DBF82C6073
S31502002130671CBE4222D9DBF834102F9851F825309D
S315020021404FEA8509002B7FF4CCAEDBF83C20BAF1CE
S31502002150010F059302EB870C7FF4CDAE2C9B013B5E
S315020021602E9352F827209B1A01332C93731EBB42DF
S315020021703FF6CDAE3C464FF00008F2E6DBF83040C3
S31502002180049B01339C4204933FF675AE0E9C28AB2A
S315020021900FCB84E80F000DF5177DBDE8F08F97E8A9
S315020021A00F000E9F87E80F00DBF83430424653F8E3
S315020021B00930314608330698F36140F0C5F824AB7E
S315020021C00FCB87E80F00B1E7BBF8282002F06001C9
S315020021D0A1F12003B3FA83F302F004065B0902F0CD
S315020021E0080092074FEA43132ED543F002030EB1BD
S315020021F043F0040308B143F00803ABF828309BF818
S315020022002A300DF5F47843F008038BF82A3040465D
S3150200221049AE40F053FC304640F068F842464FF46F
S31502002220A021584642F032FE32464FF4A0215846CB
S3150200223043F02AF8119BABF828309BF82A3023F09A
S3150200224008038BF82A30FAE6002ED1D10028D2D123
S3150200225020297FF4E7AE0B46CFE70A99DBF81C305C
S315020022605B1A0F99013B5B1A10995B1A2C9321E6B4
S31502002270F8B50D46D1E90BC101FB0CF36A6BDBB174
S315020022800024274652F82400A60080B143683BB1D9
S31502002290184610F063F96B6B9B595F606B6B98592C
S315020022A010F05CF96B6B9F516A6BD5E90BC101FBB0
S315020022B00CF30134A342E5D812B1104610F04EF9E0
S315020022C0A86B08B110F04AF9E86B18B1BDE8F840FE
S315020022D010F044B9F8BD00BF012310B50C46C1E9A0
S315020022E00B33042010F01EF9236BE063980010F004
S315020022F019F98223E26BA0631360A26B1360D4E91F
S315020023000B3103FB01F1606B890010F031F90023F8
S315020023106063036010BD00BF2DE9F04F12228DB03D
S315020023204FF4A021044647F047FB054613224FF41B
S31502002330A02120460B9547F03FFB064610224FF49C
S31502002340A02120460B9647F037FB074611224FF491
S31502002350A02120460B9747F02FFB03465B224FF442
S31502002360A021079020460B9347F026FB03465C22EA
S315020023704FF4A021089020460B9347F01DFB03461D
S315020023805A224FF4A021099020460B9347F014FBE2
S31502002390824606224FF4A0212046CDF82CA047F013
S315020023A00BFB834607224FF4A0212046CDF82CB022
S315020023B047F002FB236B0B90EBB181464FF000080E
S315020023C007984146CDE903700998089B009052464A
S315020023D02046CDE90156FFF783FB4845A8BF48468C
S315020023E05845B8BF5846A36B43F82800236B08F13B
S315020023F001089845E4D3204643F054FE20460DB02A
S31502002400BDE8F04F43F0F0BFF0B5C94885B00C46C1
S3150200241043F06CF9012801D005B0F0BD204612F058
S3150200242077F80546204612F06FF86B1E0546302BEC
S31502002430F2D801A252F823F0152500021525000252
S315020024401924000219240002192400021924000288
S3150200245019240002E92500021924000219240002A7
S315020024601924000219240002192400022726000258
S315020024701924000209250002192400021924000267
S315020024801924000219240002192400021924000248
S31502002490192400021924000219240002D52600027A
S315020024A01924000219240002192400021924000228
S315020024B01924000219240002192400021924000218
S315020024C01924000219240002192400021924000208
S315020024D019240002192400021924000219240002F8
S315020024E019240002192400021924000219240002E8
S315020024F067260002192400027126000200232846DC
S31502002500C5E91033FFF7E0FB284605B0BDE8F04009
S3150200251043F06ABF2CF0ECFC2CF0FCFC00F0FD0052
S3150200252001287FF479AF2CF0E3FC02A92CF0FEFC23
S315020025302846029C45F008FA03462722002128462F
S315020025401C4447F039FAC3B2012B019000F0FE8019
S315020025506B69122200212846E41A47F02DFA0190EF
S31502002560A4EB000CEC6A8CB1E96B0A689445C0F2E4
S315020025700D810020234605E051F8046F324462457E
S3150200258000F3E080013B00F10100F5D12846039EED
S3150200259045F0E0F9AB690644102200212846F61AF6
S315020025A047F00AFA2F6B0190A6EB000C8FB1A96BCC
S315020025B00A689445C0F2EC8000203B4605E051F8DB
S315020025C0046F32449445C0F2BF80013B00F1010022
S315020025D0F5D12B6CA34203D16B6CBB423FF41CAF0B
S315020025E02846C5E9104790E743F0FEFE2CF080FC32
S315020025F02CF0C0FC4FF6FF732A6C9A4205D06A6C27
S315020026009A4202D0002800F0B8802CF071FC2CF01F
S3150200261081FC00F0FD0001287FF4FEAE4FF6FF7349
S31502002620C5E91033F8E6204611F076FF4FF6FF7340
S315020026302A6C01689A426C6C3FF460AF9C423FF48C
S315020026405DAFEF6A2E6BBA42B4BF10460020113955
S31502002650B442B4BF2346002303293FF6DDAEDFE8CA
S3150200266001F06B69643F05B0BDE8F040FFF754BE68
S31502002670204611F051FFEB6A002B7BD04FEA830E06
S31502002680AEF1040E4FEA9E0E0EF1010E00234EF03D
S3150200269001E0EA6B043A52F8041F0B440FF005C836
S315020026A05A1E2B6B002B62D04FEA830EAEF1040E3C
S315020026B04FEA9E0E0EF1010E00234EF001E0A96BC9
S315020026C0043951F8044F23440FF005C8013BC0E911
S315020026D00023A1E6204605B0BDE8F040FFF738BB6F
S315020026E0013887422ADC711E9942C6BF0021013396
S315020026F007F1FF319E42D4BF06F1FF3323EAE373AB
S315020027008A4202D1A3423FF487AEC5E91013284696
S3150200271043F06AFE2846FFF7D7FA00222021284610
S3150200272005B0BDE8F04043F051B80130D9E700BF2B
S31502002730D05206020133D4E7013BD2E7002810DB70
S315020027400146D7E7044621E7074642E7132200215E
S315020027502846EE6947F030F9361A0190A6EB040CCA
S3150200276000E71946002BC5D0791E013BC2E74FF0A0
S31502002770FF33ACE74FF0FF3293E7024620212846AB
S3150200278043F024F801287FF447AE3EE70024FDE635
S3150200279000271EE74FF0FF330068C36243F024BEF2
S315020027A0C16243F021BE00BF0846002110F084BF7B
S315020027B02DE9F043C9B0054611F0A6FE04462846A7
S315020027C043F09CF807460CA9204643F0CBFB10A821
S315020027D040F074F94FF40031204610AA42F056FB3D
S315020027E00CAA384610A940F0C5F9204643F038FB3A
S315020027F06369E669E26AF61A0136531C8146A6EB5C
S3150200280000066AD006FB02F202F1FF03002AB8BFF5
S315020028101A46151227220021204647F0CDF8034614
S315020028202C93DBB2012B4B46A6EB050608BF3546B9
S31502002830012BB8BF01236669013B354404951D444B
S31502002840A3691222CDE90535236A4FF44031079375
S315020028509DED047F20468DED087F47F0ADF8814659
S3150200286013224FF440312046CDF8B09047F0A4F839
S31502002870054610224FF4403120462C9547F09CF82D
S31502002880064611224FF4403120462C9647F094F822
S31502002890089B0B99A3EB0902099B01449E1B0A9B09
S315020028A000922B44CDE9016303919DED007F2C90AC
S315020028B02CA88DED087F0DF1200840F0FFF8204688
S315020028C02CAA4FF4403142F0E1FA424638462CA98E
S315020028D040F050F949B0BDE8F083204642F07CF959
S315020028E010F0010F14BF3546002593E710B54FF0DF
S315020028F0FF330C4610212046E36242F0D9F8204607
S31502002900082142F089F82046BDE810404FF4806164
S3150200291042F082B82DE9F041524896B00C4642F098
S31502002920E5FE012802D016B0BDE8F081204611F07E
S31502002930EFFD0546204611F0E7FD182D064609D0A3
S31502002940202D4BD01A2DEED1204616B0BDE8F0410F
S31502002950FFF72EBF12224FF4403147F02DF80546FD
S3150200296013224FF440313046009547F025F8804651
S3150200297010224FF440313046CDF8008047F01CF863
S31502002980074611224FF440313046009747F014F8BB
S315020029904545B8BF4546BD420346B8BF3D464FF41E
S315020029A040319D423046B8BF1D46009342F004FEB8
S315020029B0034602352046EC1811F0AEFD05462B689B
S315020029C04FF400319C42B8BF1C4630462C6042F0A0
S315020029D0F3FD84420FDD28682860A4E76422002103
S315020029E046F0EAFF0446009058B9304616B0BDE8F4
S315020029F0F04143F0F9BC4FF40031304642F0DCFDC1
S31502002A00EAE7304642F0E8F8F76A00F001057B1C77
S31502002A1020D0A7EB0528B8F1000FB8BFC8F100080F
S31502002A202D020021304610F047FE684610F0D2FD16
S31502002A304FF0004308FB04F40B4A240A04920B4AA3
S31502002A406846099700960B950C9401920A9310F02A
S31502002A50DBFDCAE74FF4807815B100274546E0E76B
S31502002A604746DEE7F452060295270002A127000236
S31502002A700AF07EBA0AF0BABAF0B515460E4697B013
S31502002A800021044610F018FE684610F0A3FD4FF030
S31502002A9000474FF0FF32184B0C9601934FF4B47671
S31502002AA005F5B473099500256846CDE90A731192B6
S31502002AB0009410F0A9FD114A114B6846CDE908258C
S31502002AC001930A970AA3D3E900230B96CDE91223B1
S31502002AD010F09AFD3246294620460AF011FF4FF4BD
S31502002AE0877120460AF018FF17B0F0BDAFF30080D9
S31502002AF0AE01510200000004752A000249380102A3
S31502002B00712A000210B50C460221204641F0D0FF80
S31502002B102046BDE81040C8224FF47A71FFF7ACBFD9
S31502002B202DE9F0410026C26F8AB0B2420546CDE9D0
S31502002B300566CDE90766436FADF82460C0F283806F
S31502002B40012605AC002B444AB8BF5B420E2101A800
S31502002B500EF0F0FF01A80FF0B3F995F884C00CF05F
S31502002B600F08B8EB000215D000280BDB431C01A9A5
S31502002B7043F001E00B44414413F9010D01F8010948
S31502002B800FF007C0002A05DD302101A85BF0D0FD59
S31502002B9095F884C0BCF10F0F38D84746B8F1000F3C
S31502002BA014D0002F4FF0000114BF3A46012201A8AB
S31502002BB005E0013A04F8013B01F1010103D010F9E5
S31502002BC0013B002BF5D1BCF10F0F23D805A92846EE
S31502002BD0FEF774FAD5F8803095F88410092B01F0C7
S31502002BE00F0109DD1D481A46A0FB0343632A01F1C2
S31502002BF0FF314FEAD303F6DC8F4251EA2191284690
S31502002C00891BFDF7B1FF0AB0BDE8F0815FEA1C1728
S31502002C10C7D139462E232046414500F8013BD5DA75
S31502002C2008F10108A8EB01084444013901AB0B4441
S31502002C30241A03E0013C00F8012BC7D013F9012F37
S31502002C40002AF7D1C2E7B342B4BF2D222B220DF1DF
S31502002C5015048DF8142075E70C2D0602CDCCCCCCCC
S31502002C6070B50C4601250026B4F884300D4A6FF380
S31502002C700A030D4843F4806343F005032946C4E979
S31502002C801F25A067A4F8843020466667FEF73CF845
S31502002C9020462946FEF730F82046BDE87040FFF789
S31502002CA03FBF00BF6179FEFF9F860100426FD0F8E9
S31502002CB08030002A816F134404DB994207DB93427A
S31502002CC00DD17047002BF8DD5342994207DA90F88E
S31502002CD0853013F0010F0B46F1D08A4202D04367CA
S31502002CE0FFF71EBFC36FEAE7426FD0F88030002AB3
S31502002CF0C16FA2EB030301DD002B04DB994205DC65
S31502002D0093420BD170475342994207DD90F88530C2
S31502002D1013F0010F0B46F3D08A4202D04367FFF746
S31502002D20FFBE836FECE700BFF8B585480D4642F05B
S31502002D30DDFC012800D0F8BD0446284611F0E8FB68
S31502002D400646284611F0E0FB082E074613D00E2E43
S31502002D50F1D12CF0CDF82CF0DDF80446284611F01E
S31502002D60DBFB0168A1F11103032B00F2E480DFE82B
S31502002D7003F05752755C2CF0BBF82CF0CBF8042804
S31502002D8021D03846FDF7F6FF04460FF099F8F96CA4
S31502002D9063562E2B6BD088427DD0F86F00296BD1FB
S31502002DA000287FDB97F8842002F00F02013A012304
S31502002DB032B142F001E003EB83035B000FF005C87A
S31502002DC0C7F88030F8BD384641F00EFF41F09CF856
S31502002DD00028D6D097F8842002F00F02012AAAD939
S31502002DE097F88530D7F8805003F00603042B60D19C
S31502002DF0012D40F38280534AEB1782FB0552C3EB47
S31502002E00A203012BB8BF0123C7F880303846BDE8BC
S31502002E10F840FFF785BE3846BDE8F840FFF764BFC5
S31502002E203846BDE8F840FFF741BF042CF3D0D7E996
S31502002E301E13002BB8BF5B428B42B8BF0B46D7F8B6
S31502002E40802002EB82025000B3EB420FA8BFC7F804
S31502002E5080003846BDE8F840FFF762BE042CDFD09A
S31502002E60D7F880203749D31781FB0212C7E73846C5
S31502002E70FEF794F9F96CF86F97F88430B1EB131FEB
S31502002E8002D90F2B88BF013903F00F02013A521AF9
S31502002E9002EBD0728BE738460139FDF765FEF96C15
S31502002EA0F86FE9E701213846FDF75EFEF96CF86F27
S31502002EB0E2E70A200021013A11F0BCFFEB17854236
S31502002EC08B4113DAD7E91E03002BB8BF5B4283425C
S31502002ED0B8BF0346D7F8802002EB8202B3EB420F5B
S31502002EE04FEA4201B5DBC7F88010B2E7C7F8804067
S31502002EF03846BDE8F840FFF713BE023A0A20002121
S31502002F0011F098FFD7E91E1383EAE372A2EBE3728C
S31502002F108A420346B8BF0A4603EB8301B2EB410F6E
S31502002F204FEA4101A8BF0B46C7F880303846BDE8D4
S31502002F30F840FFF7F5BD3846BDE8F840FDF7E2BFB9
S31502002F403C5306026766666608B540F204700FF0E7
S31502002F50E9FA034BC3F8DC0100B108BDFEE700BF86
S31502002F60440E04222DE9F0430C46054687B0511063
S31502002F70002B53D023685B1A1A44013A2360A260DD
S31502002F8083696360036AE36012224FF44031284684
S31502002F9046F012FD804613224FF440312846CDF802
S31502002FA0148046F009FD814610224FF4403128462E
S31502002FB0CDF8149046F000FD064611224FF440313A
S31502002FC02846059646F0F8FC074668224FF440313B
S31502002FD02846059746F0F0FC034669224FF4403135
S31502002FE0284605931D4646F0E7FC03462268A84498
S31502002FF0A2EB080200924D44D4E901210D44029548
S31502003000E16806443B44921B0B44019203939DEDF7
S31502003010007F84ED007F07B0BDE8F08363685B1A2A
S315020030201A44013A6360E26043692360C369A3609C
S31502003030AAE700BF38B50C46002594F8A0304FF435
S31502003040807123F0030384F8A0302046C4F89C5014
S3150200305041F02EFD1021204641F02AFD4FF48061F9
S31502003060204641F0D9FC284640F0DAFB1D2805DC53
S315020030702046BDE83840012143F03ABC284640F0DC
S31502003080CFFB064B0A3083FB0023C117C1EBE301DA
S315020030902046BDE8384043F02BBC00BF6766666633
S315020030A02DE9F04F89B00E4604462BF021FF054666
S315020030B02BF030FF012802D009B0BDE8F08F284678
S315020030C02BF058FF0028F7D1284604A92BF02EFF33
S315020030D0032204A9204643F087F8204642F0BAFEAE
S315020030E00746204642F0BCFE8046002E6ED1D4F83A
S315020030F09C50002D00F0B18004F138052722D4E956
S315020031000C3600212046F61A46F056FC03462046A7
S315020031105FFA83F9069342F09DFE8246204642F00C
S315020031209FFEB9F1010F94F84CB000F08F804FF07A
S315020031300009474560DA10220021204646F03CFC91
S3150200314003461122002120460693019346F034FCE1
S3150200315082462046CDF818A042F082FE019BA0EBE3
S315020031600A02CB45A2EB030200F0CE80A1690598C4
S315020031700B44C01A02EBD2735B1006FB003393FBBF
S31502003180F2F3216B0B44D4F89C20606BAA420CBF6D
S31502003190E06AA16B8342A8BF03468B42B8BF0B46C7
S315020031A01068984288D04745ACBF4FF400714FF47F
S315020031B080711360204641F07BFC204643F014F9EF
S315020031C000222021204642F001FB75E794F8A03048
S315020031D0DB078CD48742ABBFD4F89420D4F898206E
S315020031E0049B059B9B1A002B95F82420B8BF5B42D3
S315020031F09342BFF67CAF5FE712220021204646F0DB
S31502003200DBFB8246132200212046CDF818A046F0A9
S31502003210D3FB014620460691019142F01BFE01991D
S31502003220A0EB0A02CB45A2EB010273D0E3695B1A5B
S3150200323004995B1A216B002AA5D002EBD2704010CA
S3150200324006FB030393FBF2F30B449CE78245B4BFF0
S315020032504FF000094FF001096BE7204609F078FCB0
S3150200326094F8A030022843F0010384F8A03057D125
S315020032702BF03EFE06A92BF059FE0322204606A994
S3150200328042F0B2FF27222946204646F095FB064623
S315020032902046039642F0DEFDF6B28146204642F013
S315020032A0DFFD012E94F84C2059D081453FDB2B4699
S315020032B09342069D65D0D4F88430AB4230DCE16F90
S315020032C0A94250DBD4F88C00626F891AC01A01EB4E
S315020032D0D17100EBD07002EB610203EB6003521B6B
S315020032E05B1B002AB8BF5242002BB8BF5B429A4210
S315020032F094F8A0303CDD04F12C0223F00203C4F85A
S315020033009C2084F8A030F7E6236A0AEB0300059BAB
S31502003310C01A2FE763699A44049BA3EB0A0389E761
S3150200332004F12C03C4F89C3004F13805E6E6079D47
S3150200333092B3D4F89010A942F2DBA26FAA4212DC31
S31502003340D4F88830D4F88000801AC91A00EBD070FD
S3150200335001EBD17102EB600203EB6103BFE781452A
S31502003360E5DB3346A4E704F13805C4F89C50C5E60C
S3150200337004F1380543F00203C4F89C5084F8A030E7
S31502003380BCE6D4F88C00A842CADB626FAA42EADC29
S31502003390D4F88430E16F98E7D4F88830AB42BFDCCA
S315020033A0D4F88000A842DEDBD4F89010A26FCBE7F7
S315020033B02DE9F04FD548BFB00E4642F097F90128E5
S315020033C002D03FB0BDE8F08F304611F0A1F80546B5
S315020033D0304611F099F8074609F0BAFB012804466F
S315020033E005D0A4F10204B4FA84F4640964006B1EE5
S315020033F02D2BE6D801A252F823F000BF9136000227
S31502003400FF370002B5340002C3330002C3330002A1
S31502003410C3330002C3330002B5340002C3330002D1
S31502003420C3330002C3330002C3330002C3330002B4
S315020034301D3500027D350002DF370002C33300026C
S31502003440C3330002AF360002C3330002C3330002A5
S31502003450C3330002C333000211370002C333000232
S31502003460A3350002C3330002C3330002C333000292
S31502003470C3330002C3330002C3330002C333000264
S31502003480C3330002C3330002C3330002C333000254
S31502003490C3330002C3330002C3330002C333000244
S315020034A0C3330002C3330002C3330002C333000234
S315020034B05D360002002500213846FFF7F1FD97F838
S315020034C0A030384623F0010387F8A030C7F89C5095
S315020034D042F08AFF384641F087FB064640F014FD6B
S315020034E004462BF005FD2BF015FD042800F0C181E2
S315020034F001287FF466AF384642F0ACFC04463846F3
S3150200350042F0AEFC8442ACBF4FF400714FF48071BE
S3150200351038463FB0BDE8F04F41F07EBA304642F041
S31502003520F7F9113803283FF64CAFDFE800F018022E
S31502003530180297F8A03038469A0700F1E48109F09C
S31502003540F3FA014601223846013909F041FA00220E
S31502003550202138463FB0BDE8F04F42F037B997F820
S31502003560A0303846990700F1518109F0DDFA0122AF
S3150200357001463846114409F02BFAE8E7304642F094
S31502003580D3F997F8A03004469B07384600F13E81EE
S3150200359009F0CAFA014601223846214409F018FA0E
S315020035A0D5E7304610F0B0FF0446304642F0A6F9A1
S315020035B0272200218046204646F0FEF90346204691
S315020035C0DFB2229342F046FC0646204642F048FC11
S315020035D08642B4BF4FF0000A4FF0010A012F05469A
S315020035E094F84CB0204600F0538109F0B7FAAE4287
S315020035F08146C0F2278100230193204642F030FC27
S315020036000746B9F1000F03D0E36A002BC0F26E81C0
S31502003610019B5B4500F06E81E36B029306A83FF0C7
S315020036204DFA4FF44031204606AA41F02FFC53468C
S315020036303A46204602A9FFF795FCA1469DED027F78
S315020036402046A9ED217F09F083FA022800F027819E
S315020036504A46404606A93FF08DFAB2E6384642F09F
S31502003660F9FB0446384642F0FBFB8442C0F2DC809A
S315020036704FF40071384641F0CFF94FF48071384665
S3150200368041F016FA38463FB0BDE8F04F42F002B8B4
S3150200369007F194042BF02CFC21462BF047FC032265
S315020036A0214638463FB0BDE8F04F42F09DBD304658
S315020036B010F032FFBD68064605B12D6A97ED217FEF
S315020036C022A880ED007F2A46294610F00BF9002237
S315020036D0316822A810F0FCF9307100287FF471AE2F
S315020036E0022C7FF46EAE97ED1D7F01908DED227F49
S315020036F022A82A46294610F0F5F8019B31681A4697
S3150200370022A810F0E5F930715BE600BF60530602AD
S3150200371012224FF44031384646F04EF9054613223E
S315020037204FF440313846229546F046F98246102239
S315020037304FF440313846CDF888A046F03DF981462F
S3150200374011224FF440313846CDF8889046F034F9CC
S31502003750804668224FF440313846CDF8888046F0DC
S315020037602BF9834669224FF440313846CDF888B0AA
S3150200377046F022F904463846229442F06BFB00EBEF
S315020037804B033846019342F06BFB019B00EB44006E
S3150200379083424FEA4B0B38464FEA44043FDA42F083
S315020037A059FB83444FEA6B045545B8BF55464D4510
S315020037B0B8BF4D464FF44031384641F0FDFE45450F
S315020037C0ACBF641944440346023430461C4410F02C
S315020037D0A3FE03689C42B8BF1C460460F1E52BF0C9
S315020037E087FB2BF097FB042802D002287FF4E9AD71
S315020037F097F8A03023F0020387F8A030E1E5012113
S3150200380038463FB0BDE8F04FFFF74ABC09F092F9DF
S31502003810012201463846114409F04AF997E642F078
S315020038201FFB04446410BFE738464FF4807141F031
S31502003830F3F84FF40071384641F03AF922E709F0FD
S315020038408DF98146204642F005FB0746B9F1000F85
S3150200385002D0E36A002B07DBBBF1000F07D0A36C93
S31502003860039300230193D9E6BBF1000FF7D0236C33
S31502003870F6E7002C3FF4A5AD384609F069F90228AF
S315020038804AD0294630463FB0BDE8F04F40F0CCBAA8
S31502003890AE42D4DB09F062F901978146ADE67022A9
S315020038A006A922A80EF074FA4A46404606A93FF037
S315020038B061F9AE4220DB019B9B450CBFE36B636C57
S315020038C00293204653463A4602A9FFF74BFB9DED6B
S315020038D0027FA4ED1D7F22A9702206A80EF058FAD7
S315020038E02246404606A93FF045F96AE5019B5B453B
S315020038F03FF492AE636C90E6019B9B450CBFA36CB2
S31502003900236C0393DDE709F015F9014601223846D7
S31502003910013909F0CDF81AE697F8A030980704D4D1
S3150200392043F0020387F8A0304BE565F341032946CD
S31502003930304687F8A030A6E7014610B5034841F0A5
S31502003940B3F9044641F016FA204610BD605306024A
S315020039502DE9F04FB0F84890036C85B0C9F30E0913
S31502003960D0F844B00393B9F1000F34D08046002555
S3150200397009F1FF3A00F12C06D8F848400021C4F3B9
S31502003980CE34B5FBF4F75246039B2846CDF800B079
S3150200399011F06EFA04FB175704463046B7FA87F75A
S315020039A011F05EF87F09014690B1CB68A34209DCAB
S315020039B00B69A34206DB4B69FF2B0FD0AB421CBF40
S315020039C08D610F62304611F053F801460028ECD1A2
S315020039D00135A945D0D105B0BDE8F08F4D61CF6163
S315020039E0F0E700BFF0B507460C461E4683B0002A34
S315020039F03DD0154648216A46284611F007FE0128A1
S31502003A001AD1009820636A464C21284611F0FEFD21
S31502003A1001281FD1009BA3851B0C84F82E306A4611
S31502003A204D21284611F0F2FD01280CD19DF8000027
S31502003A3084F83C0003B0F0BD48223146384645F0D2
S31502003A40BBFF0190DEE74D223146384645F0B4FF12
S31502003A50C0B2EDE74C223146384645F0ADFF03468B
S31502003A600190C0F3074084F82E00A385D7E71946D4
S31502003A704C2245F0A1FF03461D460193C3F30743BB
S31502003A80314684F82E304D223846A58545F094FFFE
S31502003A90034648223146384684F83C30019345F0C5
S31502003AA08BFF206303B0F0BD2DE9F04F0E4683B0C5
S31502003AB0002117461222044645F07EFF05461322D0
S31502003AC000212046019545F077FF8146102200210C
S31502003AD02046CDF8049045F06FFF80461122002162
S31502003AE02046CDF8048045F067FF82462046CDF891
S31502003AF004A042F0AFF9A0EB050B204642F0B0F964
S31502003B00A0EB0803ABEB090BA3EB0A039B4520468C
S31502003B1011DA42F09FF9431BA3EB090043086269DD
S31502003B201A442A443260A2691A44424472603B60D3
S31502003B3003B0BDE8F08F42F093F9A0EB0803A3EBC4
S31502003B400A035B08EBE700BF2DE9F04F0446164671
S31502003B50A1B010A889461F463EF01EFF10AA0021FA
S31502003B60204641F065FC0322002E00F0F6804FF459
S31502003B700031204645F020FF002580460C90E36B7D
S31502003B80102B60D8DFE803F06262625F625F5F5FFC
S31502003B90095F5F5F5F5F5F5F090020460CA942F025
S31502003BA0E1F9DDE90C1C0E9B0F98226D5B1AA0EB66
S31502003BB00C00013301305B08400802FB09F2834224
S31502003BC028BF0346B4F8480002EB8202C0F30E0097
S31502003BD001385200B2FBF0F2002E18BF4546606D66
S31502003BE0D4F83CE000EB800002EB40041C9A03EBA5
S31502003BF00C001944BEF1080FA3EB0203CDE90A102B
S31502003C000CBF5D1BED1819444FF000084FF480738A
S31502003C100AAE3960786021461A4638460096CDF8D3
S31502003C20048010F087FA4FF480730A9A0B982146A3
S31502003C302A9C2A44CDF80480226060601A462046F7
S31502003C40009610F077FA21B0BDE8F08F30220021FD
S31502003C50204645F0B1FE8246102200212046CDF8CC
S31502003C6030A045F0A9FE0346112200210C932046FE
S31502003C705344029345F0A0FE0346132200210C93FF
S31502003C8020465344039345F097FE03461222002131
S31502003C900C9320465344059345F08EFE8346132229
S31502003CA04FF4A0212046CDF830B045F085FE0346FC
S31502003CB012224FF4A021089020460C9345F07CFE78
S31502003CC0034610224FF4A021069020460C9345F09D
S31502003CD073FE03464FF4A0210490112220460C9352
S31502003CE045F06AFEE16B034602290C904BD00BEBC2
S31502003CF00A0207921C9A0429D4F814C04FEA520AFF
S31502003D0034D0012967D00398AAEB000A206A8244BC
S31502003D10DDE90620104400EB0C0B002965D1002ECC
S31502003D20B4F84860C5F1000555EA08B5C6F30E06B3
S31502003D30042906F1FF3639D0B1455FD0B9F1000F3B
S31502003D4076D1C7E900BA2A9B2A9AC3F800B07B68E3
S31502003D502B44536021B0BDE8F08F4FF4A0212046DA
S31502003D6045F02AFEB04605460C9008E7079A0498E5
S31502003D709244A2690AEB0C0B0992029A00EB020A20
S31502003D80099A9244CBE71C9A05990298C1EB520B09
S31502003D90E26904999344A26901EB000A924406B1CE
S31502003DA04546B4F84860C6F30E06013EB14507D053
S31502003DB00399226A5918A2EB010AB9F1000F24D11C
S31502003DC00BF1FF33C7E9003A5D1B2A9BC3E9005A90
S31502003DD021B0BDE8F08F029B089A53449A46A36924
S31502003DE09A44059B134403EB0C0B002EB4F848606F
S31502003DF018BF4546C6F30E06013E9DE7DDE90623DA
S31502003E001344E269A2EB030B9BE72046059342F0BB
S31502003E1027F8DDE902231A44049B1A44059B13443E
S31502003E20C31A09FB03F393FBF6F3AAEB030AC7E7EC
S31502003E30204642F00FF8079A059B1344089A13444A
S31502003E40069A1344C31A09FB03F393FBF6F39B4446
S31502003E5077E700BF2DE9F04FB0F848B0A9B0CBF331
S31502003E600E0BBBF1010F40F2B680C36B0546102B59
S31502003E7000F0B180082B00F0AE804FF0000908A8D0
S31502003E803EF08AFD4FF4003108AA284641F0D0FAE6
S31502003E9018A83EF081FD4FF4A021284618AA41F049
S31502003EA0C7FA0BF1FF33039305F12C07D5E9113459
S31502003EB0009300212B6C039A484610F0D9FFC4F3F5
S31502003EC0CE3406463846B9FBF4F810F0C9FD04FBB9
S31502003ED018980446C8B1E368B34203DC2369B342C7
S31502003EE080F2D0804FF40031284608AA41F0A0FAA9
S31502003EF04FF4A021284618AA41F09AFA21463846DC
S31502003F0010F0B6FD04460028E5D1B8FA88F206ABF1
S31502003F1049460093520904AB2846FFF715FEB5F849
S31502003F204830149A2499C3F30E03B8F1000F40F0F7
S31502003F309580994500F0C080B9F1000F6CD1EB6B0A
S31502003F40082B08D0102B06D0022B00F0BC80042BC5
S31502003F5000F0B980EA65384610F082FD0446002872
S31502003F6000F0B9805FFA89FA08E0A369534535D0B3
S31502003F702146384610F07CFD044638B3E3689E427B
S31502003F800CDB23699E4209DCB8F1000F37D14FF4EE
S31502003F9000332846626808A9FFF724FD6369534582
S31502003FA0E3D1E3694BB3149B059AD907226305D57E
S31502003FB0EA6B022A2DD0042A2BD0013B21466362EA
S31502003FC0384610F055FD04460028D7D109F10109FB
S31502003FD0CB457FF46BAF29B0BDE8F08F236AB3B14E
S31502003FE0149B059AA263DA0705D5EA6B022A1FD04B
S31502003FF0042A1DD00133A362BAE7249BD4E74FF407
S31502004000A0232846A26818A9FFF7ECFCC6E7249B62
S31502004010E7E70133D2E7E965384610F021FD0446A9
S3150200402000289FD109F10109CB457FF43FAFD2E7C2
S31502004030013BE0E74FF4A0232846A26818A9FFF740
S31502004040D1FC06AB49460093002204AB2846FFF793
S315020040507BFDB5F848302499C3F30E039945DBD1AD
S31502004060EB6B082BD8D0102BD6D0022BD3D0042B37
S31502004070D1D03846296610F0F3FC044600287FF4B6
S3150200408071AFCFE7B8F1000FD4D14FF40033284611
S31502004090626808A9FFF7A6FC06AB0122009349460F
S315020040A004AB2846FFF750FDB5F84830149AC3F31F
S315020040B00E0399457FF440AFEB6B082BACD0102B67
S315020040C0AAD01146D1E738462A6610F0C9FC044642
S315020040D000287FF447AF4FF00109E7E62DE9F041EA
S315020040E000266FF06044054688B0CDE901461C46BD
S315020040F08B6B16460093CB6B06A8D1E9071211F01B
S31502004100BFFFEB6B102B18D8DFE803F041411A17FB
S315020041101A171717091717171717171709003068ED
S31502004120DDE90623A0EB5200206071680244A1EB90
S315020041305301C4E901120B44E36008B0BDE8F08103
S315020041407368079AA3EB52036360736803EB520327
S31502004150E360EB6B022B42D013224FF40031284668
S31502004160D6F8008045F028FC0746284608EB0705E6
S315020041702560069B356813224FF400311D440597CE
S3150200418045F01AFC0544A56008B0BDE8F081336825
S31502004190069AA3EB52032360336803EB5203A36030
S315020041A0EB6B012B0ED010224FF4003128467568B6
S315020041B045F002FC079B281AC31AE060636008B048
S315020041C0BDE8F081284611224FF40031756845F0AA
S315020041D0F3FB079B284403446060E360ADE7336862
S315020041E0069912225F1A28464FF4003145F0E4FB85
S315020041F00346FF1A276012224FF40031284636681A
S31502004200059345F0D9FB361AA66096E72DE9F04FDD
S315020042100546EDB00846069141F070FBB5F8483008
S315020042200390C3F30E03012B40F29A8057A83EF087
S315020042305DF84FF4003157AA284641F025F826A822
S315020042403EF0AAFB4FF40031284626AA41F0F0F8C8
S31502004250EB6B102B00F08780082B00F0848036A8C9
S315020042603EF09AFB4FF4A02136AA284641F0E0F828
S3150200427047A83EF091FB47AA0021284641F0D8F80C
S31502004280B5F84820C2F30E02002A69D04FF0000B9F
S31502004290D846531E049305F12C070DF14C090592DD
S315020042A0AB6CC3F3CE33B8FBF3F203FB1283002BE2
S315020042B060D101260BF1010B6B6C00210093049A6D
S315020042C02B6C404610F0D4FD0446384610F0C8FB6D
S315020042D0824600B3DAF80C30A34203DCDAF8103077
S315020042E0A34249DA4FF40031284657AA40F0CCFFE0
S315020042F04FF40031284626AA41F09AF84FF4A0213D
S31502004300284636AA41F094F85146384610F0B0FBDA
S3150200431082460028DED1324611AB41462846CDF808
S315020043200090FFF711FC95F84B305A0600F10E810A
S31502004330002E40F0A980DDE91101D9E90023CDE97B
S315020043400801CDE90A239DED087F039836A98DED74
S315020043503D7F3EF033FB059B08F1010843459FD1A3
S315020043606DB0BDE8F08F9DF8D53023F010038DF8BF
S31502004370D53074E700269FE7002E00F0EB80DAF8CE
S315020043800460002E00F02181582130461DAA11F04A
S315020043903DF9012840F00A811D9AADF88821120CD8
S315020043A08DF88A21592130461DAA11F02FF90128CC
S315020043B040F0F3809DF874208DF8A4215B213046ED
S315020043C01DAA11F023F9012840F0DE801D9A66929B
S315020043D030465A211DAA11F019F9012840F0CB8066
S315020043E01D9A5F924FF400332846DAF8042026A974
S315020043F0FFF7F8FA11AB012241462846CDF80090A4
S31502004400FFF7A2FB95F84B305B063DD5069841F0C7
S3150200441075FA0023AA6B8246CDE92133CDE923330F
S315020044202593002A00F0FC80A96D1FFA8BF38B42BC
S315020044300EDC03F18043013B52F8233043B10022E4
S315020044405E939DF8A83162F386138DF8A83101E0D8
S3150200445000235E93EB6B102B16D8DFE803F00909F5
S3150200446009150915151526151515151515152600FF
S3150200447019AC23464A46284657A9FFF72FFE22467D
S31502004480504657A93DF060FFDDE91101D9E9002345
S31502004490CDE90C01CDE90E239DED0C7F039826A9EB
S315020044A08DED2D7F3EF08AFA55E728461DA941F08B
S315020044B059FDDDE91DC4DDE91F30A3EB0C03001B2A
S315020044C0013301305B084008834228BF03460322BA
S315020044D01C449C444FF40031284616940793CDF8A9
S315020044E054C045F069FA2A6D15AE02FB08F202EBDA
S315020044F082025100B5F8482019ACC2F30E02013A05
S31502004500B1FBF2F16A6D079B02EB820201EB4201FB
S31502004510EA6B2060082A00F09280102A00F096804A
S315020045200020002301934FF4807300963268024400
S315020045307068CDE917201A4617A80FF0FBFD23462F
S31502004540284617AA57A9FFF7C9FD98E7002E3FF498
S31502004550F2AE5BE72846DAF8082036A94FF4A02324
S31502004560FFF740FA324641462846CDF8009011AB95
S31502004570FFF7EAFADFE65A224FF40031284645F001
S315020045801BFA024621902CE75B224FF400312846A3
S3150200459045F012FA0246219019E759224FF40031EA
S315020045A0284645F009FA2190C2B205E758224FF48F
S315020045B00031284645F000FA02462190C0F3074032
S315020045C08DF88A01ADF88821ECE658224FF40031C5
S315020045D0284645F0F1F90646B44659224FF4003111
S315020045E021962846C6F30746ADF888C18DF88A613A
S315020045F045F0E2F906465B224FF400312846219641
S315020046008DF8A46145F0D8F906465A224FF40031D6
S3150200461028462196669645F0CFF921905F90E1E60D
S31502004620234614210C4A21A80DF084FA21AB5E938D
S315020046309DF8A83143F040038DF8A8310AE7181A0D
S315020046406FF00E03669A9B1A18446AE7669A034449
S315020046500F32D01865E700BF0C2D06022DE9F04F88
S315020046602DED048B0446B1B0084641F047F9B4F883
S315020046704830C3F30E03012B0ED9E36B8146102B90
S315020046800AD8DFE803F00E0E0E090E090909AA0977
S31502004690090909090909AA0031B0BDEC048BBDE874
S315020046A0F08F0DF1800A50463EF076F9524600210F
S315020046B0204640F0BDFE30220021204645F07CF91E
S315020046C00746102200212046109745F075F9064646
S315020046D0112200212046109645F06EF90546122257
S315020046E000212046109545F067F9804613220021E5
S315020046F02046CDF8408045F05FF9E36B1090022B1F
S315020047003E443D44384400F03C81042BB84400F05A
S315020047104A81012B40F04F812C9B6769A26906EB07
S315020047205306074432441646E16DE369A7EB510787
S31502004730216EA3EB080303EB51035146484604F1ED
S315020047402C0829932A92CDE927763EF037F940467E
S3150200475010F086F9054600289ED00DF1100B0DF1DA
S315020047605C0A21E0042930D03146B446E86AC01A10
S315020047706B6B1344CDE9040CCDE906319BED009F2A
S315020047802A680023204610A9FFF72CF9484610A9EB
S315020047908AED009F3EF012F92946404610F068F96C
S315020047A0054600283FF478AF10A83EF0F5F8002140
S315020047B010AA204640F03CFEE16B6B6AAA6A022907
S315020047C04FEA53034FEA5202CCD1296B384603EB28
S315020047D0010CA96B3B46891ACCE710A83CF052FCA7
S315020047E00CAD0021204610AA40F090FE2946204634
S315020047F008AAFFF759F9D4E91423216C1A44009246
S315020048000846626C10F034FBD4E91413626C194446
S3150200481000910646216C104610F02AFB089BCDE952
S31502004820196095E80300ADF874301BAB83E803000A
S31502004830484610A93CF038FC04F12C0318460393B1
S3150200484010F00EF9054600283FF426AF0DF1800A56
S315020048500DF1380B2FE00A982890522130460AAA09
S3150200486010F0D4FE01285FD10A9BADF89C301B0CD8
S315020048708DF89E30304653210AAA10F0C7FE012851
S315020048804AD19DF828008DF8BC00099B9BE80300DD
S31502004890ADF8B4302BABCDE9298783E80300514646
S315020048A048463CF001FC2946039810F0E1F805461B
S315020048B000283FF4F1AE50463CF0E4FB524600219C
S315020048C0204640F023FE5946204609AAFFF7ECF897
S315020048D0636D226DE8681A440092D4E9101210F052
S315020048E0C7FA636D226D80461A4428690092D4E99C
S315020048F0101210F0BDFA2E6807461EB3502130463C
S315020049000AAA10F083FE0128A5D0482200212046DB
S3150200491045F052F80B909FE74D220021204645F0C4
S315020049204BF80B90C0B2AEE74C220021204645F070
S3150200493043F803460B90C0F307408DF89E00ADF88E
S315020049409C3097E74C223146204645F035F803461F
S315020049509C464D2231460B932046C3F307438DF8FE
S315020049609E30ADF89CC045F027F8034648223146F2
S3150200497020460B938DF8BC3045F01EF80B9028901C
S3150200498083E72C9BA269C0EB5300E36916440344F8
S31502004990E16D226AA6EB5106216E013B521B1F46B0
S315020049A002EB5102C9E62C9B626908EB53031344DE
S315020049B0A2691644ECE73BB92C9A6769236AC5EBF0
S315020049C0520247441A44AEE600221746ABE600BF3F
S315020049D070B50B6B0E4601F12C056BB1284610F033
S315020049E03BF80446284621460FF0EAFF20460DF022
S315020049F0B5FD336B002BF1D12846BDE8704000218E
S31502004A0010F006B870B50C463C2104F12C000FF0EC
S31502004A107DFF00230122872564204FF48771C4E9B4
S31502004A200E3294F84C20094EC4E91553C4E91733E3
S31502004A3063F3000221656064A664236484F84C2053
S31502004A402046BDE87040102140F032B80B8002408B
S31502004A5070B51F480C4640F049FE012800D070BDD3
S31502004A6020460FF055FD054620460FF04DFD1A2D46
S31502004A70064620D01D2D16D190F94B30002BEEDACA
S31502004A80FEF766FF3046FFF7E5F996F84C30214609
S31502004A90DB07304614D5FFF7E1FD21463046BDE877
S31502004AA07040FFF7B3BB182DD9D12046BDE8704040
S31502004AB0642140F045BF90F94B30002BE0DA70BD1F
S31502004AC0FFF7A4FB21463046BDE87040FFF7C6BD9E
S31502004AD08453060241F026B8F0B5002187B0054698
S31502004AE045F018FF044608B35A224FF4802128469F
S31502004AF044F062FF03465B224FF48021284604936A
S31502004B001D4644F059FF0346204600261C460493E0
S31502004B106FF0604702F0E2FA234601462A4604A8ED
S31502004B20CDE90176009611F0ABFA049807B0F0BD14
S31502004B30F0B55A2285B00E460021054644F03CFFE8
S31502004B4004465A224FF480212846009444F034FF4A
S31502004B5003465C22009300212846E468DF6844F09D
S31502004B602BFF3B19044603EBD3732846AF69009427
S31502004B7004EB630441F074F900EBD07004EBD472D9
S31502004B8007EB6003A3EB62031C4473602846694685
S31502004B90F46041F0BDF8009A029B3260B36005B042
S31502004BA0F0BD00BF2DE9F04FB9B006460FF0B0FCDC
S31502004BB0054630460FF0A8FC1A2D044604D01D2DDA
S31502004BC01BD039B0BDE8F08F304640F097FE05465F
S31502004BD018A92046FFF7ACFF1CA83DF06FFF204640
S31502004BE01CAA4FF4802140F051F9284618AA1CA9A4
S31502004BF03DF0C0FF39B0BDE8F08F304640F07EFE92
S31502004C0006461CA83DF072FB1CAA4FF480212046E2
S31502004C1040F03AFB06F11805204610A914AFFFF73B
S31502004C2087FF2946384610AA0EF082FE0028C8D011
S31502004C300021204645F06EFE814602F04FFADDE97C
S31502004C402A3B80462046DDF890A0059341F002F902
S31502004C50059B5246CDE9003001205B464146029053
S31502004C600AA811F00DFA204641F0FAF800215A225C
S31502004C708046204644F0A0FE8346CDF860B0DBF8BD
S31502004C800C20D9F8183002EBD27203EB6203A26948
S31502004C9008EBD87802EB680248464FEA680AA3EBAB
S31502004CA0020841F0DDF8DBF80C300B9AC01A002836
S31502004CB0C4BF4FEA883898FBF0F8249BA169DB68E9
S31502004CC02046D21A08FB02F20AEB010803EBD37361
S31502004CD0002108EBA2383022A8EB630844F06CFEF0
S31502004CE08246122200212046CDF860A044F064FEDE
S31502004CF003461322002120461893059344F05CFED6
S31502004D000B9A189008EB020E059B62699DF8BB1080
S31502004D101A44E3695244181AA0EB0A00CDF824E0BB
S31502004D20CDF81C80069208909DED067F41F00101A8
S31502004D308DF8BB100DF1600B95E80F008BE80F00A4
S31502004D4097E80F0085E80F0048468DED0C7F02F0CC
S31502004D50C5F903460CAA30461CA923933DF0F4FA82
S31502004D609BE80F0085E80F002BE700BFF0B5836BC9
S31502004D70C56A4FEA530CB5FBF3FE036B0EFB0CFC44
S31502004D80B3FBFEF50EFB15336344B3FBFEF503637B
S31502004D900EFB1533634483B043635A220021044653
S31502004DA044F00AFE06465C2200212046019644F0A3
S31502004DB003FE05462046F768019541F095F806463A
S31502004DC00021204645F0A6FD07EBD773216B06EBC3
S31502004DD0D6765B10C3EB66033D4401FB153103B087
S31502004DE0BDE8F04040F09EBE2DE9F0478A4696B0F7
S31502004DF00021044645F08EFD002850D0064602F0FA
S31502004E006DF900210246304645F054F9022849D090
S31502004E10032865D00021304640F06CFE5A2200215C
S31502004E20204644F0C9FD05465C2200212046009535
S31502004E3044F0C2FD80462046CDF80080ED6841F080
S31502004E4053F8642200210746204644F0B5FD814608
S31502004E500090BAF1000F4CD0A84405EBD57507EBCC
S31502004E60D7776D10C5EB670540B3236B684603FB26
S31502004E7018550EF0AFFB314B3046CDE9006340F0DA
S31502004E807FFF4FF0004201462D482E4B08906846A0
S31502004E90CDE90912CDE90B5904930EF0B5FB16B014
S31502004EA0BDE8F087204640F0E1FF0546304640F077
S31502004EB0D1FF291A01EBD1714910ACE794F83C30C5
S31502004EC0DA0726D4236B03FB185530461B490EF02E
S31502004ED0F3FB2946304616B0BDE8F04740F022BE45
S31502004EE0204640F0C3FF0546304640F0B3FF291A7C
S31502004EF091E794F83C30DB070FD407EBD77705EB45
S31502004F00D572236B7F10A7EB6207454403FB157529
S31502004F10DBE72046FFF72AFFD4E7204607EBD777E1
S31502004F20FFF724FF7F1005EBD572236BA7EB620711
S31502004F3005EB080003FB1075C7E700BFD54A000260
S31502004F4001380102715100022DE9F0430846B3B05F
S31502004F500C460FF0DDFA1A2825D0054621465B4895
S31502004F6040F0C4FB012802D033B0BDE8F0832046EE
S31502004F700FF0CAFA182D064674D120460FF0CCFA65
S31502004F800546304645F0C2FCFFF7A6FD044630460C
S31502004F9040F060FF2B68241A9C42B8BF1C462C6066
S31502004FA033B0BDE8F08320460FF0AEFA20460FF08C
S31502004FB0ABFA804645F0AAFC06461DA83DF096F9D6
S31502004FC000211DAA304640F05FF9204640F096FCCB
S31502004FD00DAD00F118040DF14409074694E80F00DF
S31502004FE085E80F002146484606F114020EF0A0FCA1
S31502004FF00028B9D099E80F0084E80F00304615A9B9
S31502005000FFF796FDD8F8143008AE0493D8F8183096
S3150200501032460593D8F81C3021460693169B304635
S3150200502007939DED047F86ED007F0EF081FC20BB89
S31502005030D8F8143032460093189B21460193D8F8CB
S315020050401C3030460293D8F8203003939DED007F42
S3150200505086ED007F0EF06CFC40BB95E80F0084E8FD
S315020050600F0081E72E2D7FF47FAF45F04FFC002124
S3150200507033B0BDE8F043FFF7B7BE0DF1640994E81B
S315020050800F0089E80F0096E80F0084E80F004046FB
S3150200509002F024F81DA9249008F1140238463DF0C6
S315020050A053F999E80F0084E80F00C1E796E80F006C
S315020050B084E80F00404602F011F803461DA938465F
S315020050C008F1140224933DF03FF9C6E7A8530602FD
S315020050D02DE9F04104460E4684B0002843D04FF431
S315020050E0807500276E220021204644F065FC0346A7
S315020050F06C22002120461F44029344F05DFC0346C5
S315020051000FFA83FC6D2200212046A8463FB2029385
S31502005110BCF1000F01D005FB0CF844F04DFC024631
S3150200512013B2204602920BB103FB05F545F0EEFBE6
S315020051302D1204460028D5D14FF480334FEA282297
S3150200514093FBF2F293FBF5F37942002400253046F5
S315020051500026CDE9024502AC019600940EF0EAFF64
S3150200516004B0BDE8F0814FF4807301461A46ECE7BD
S3150200517008B5006845F0CAFB90F83C30DB0700D45E
S3150200518008BDBDE80840FFF7F1BD00BF2DE9F04FAD
S31502005190044600250E4685B00021904645F0BAFB2E
S315020051A0C4E90B55656396F900300746002B00F0FB
S315020051B08C80B4460A2B04BF0135E5621CF9013F17
S315020051C0002BF7D1013594F83C30E562B8F1000FB7
S315020051D00FD168F3000384F83C303146384601F0BB
S315020051E091FE236B3846636305B0BDE8F04F40F08D
S315020051F051BA43F001035A22002184F83C3020467A
S3150200520044F0DAFB034600215B222046D4F82C80C8
S31502005210DD68039344F0D0FB02464FF47A731544DB
S3150200522008FB05F593FBF5F30F2BA8BF0F23032B02
S31502005230B8BF0323039213F0010F03F1010208BF63
S3150200524013463046A3630CF03BFEA36B814600FB7C
S3150200525003300DF067F9A36B09F1010801908BB3D6
S3150200526005464FF0000B4FF00A0A284631460CF06D
S3150200527033FE05F809A0A26B0BF1010B93454544D9
S31502005280F3D302FB08F808F1FF380023019D3846E4
S31502005290294605F8083001F035FE28460DF05EF97C
S315020052A0A26BE16A530801FB03F301FB02F294F8D5
S315020052B03C10C4E90B23CA0794D52046FFF756FDD6
S315020052C0236B8FE74FF0FF38DFE701257BE700BF4F
S315020052D038B50C46002594F83C30204623F00103ED
S315020052E084F83C301021C4E90B5565633FF0E0FBBE
S315020052F020464FF400713FF0DBFB214605483FF0A4
S31502005300D3FC3FF037FD2A462046BDE83840024925
S31502005310FFF73CBFA8530602282D060290F83CC0B0
S315020053200B461CF0010F114670B5C26A1DD0846B84
S31502005330B2FBF4FC634518D2046BB4FBFCFE0CFB17
S315020053400EFEA4EB0E04E61A35B2002DB6B256EAEC
S31502005350C5B5B5EB5C0F07D99C4203EB0C04A3EB76
S315020053600C0C94BF63462346734402F1FF3C9342FE
S3150200537028BF6346BDE87040C0E90C33FFF734BD71
S315020053802DE9F04FCC4885B00C4640F0AFF9012824
S3150200539002D005B0BDE8F08F20460FF0B9F80546F9
S315020053A020460FF0B1F86B1E0546302BF1D801A24C
S315020053B052F823F0F15500028D550002A95400025D
S315020053C09353000293530002935300029353000235
S315020053D0A95400029353000293530002935300020E
S315020053E093530002935300021555000247550002DB
S315020053F075550002035500029353000293530002AF
S3150200540093530002935300029353000293530002F4
S31502005410CF550002935300029D540002935300029B
S31502005420935300029D5400029353000293530002C9
S3150200543093530002935300029353000293530002C4
S3150200544093530002935300029353000293530002B4
S3150200545093530002935300029353000293530002A4
S3150200546093530002935300028F54000279540002B0
S3150200547093530002DF550002002145F04BFA18B1A2
S3150200548000222F2140F0A2F9284640F00BFE00210F
S31502005490284605B0BDE8F04FFFF7A6BC204605B08A
S315020054A0BDE8F04FFFF77EBB002145F033FA064612
S315020054B000283FF46EAF29F01BFD814629F02AFD34
S315020054C0042800F0E880022801D12B6B6B63484662
S315020054D029F020FD012800F09A80484629F01AFD9D
S315020054E0032800F0948002AF2B6B3A46202128460F
S315020054F0029340F06BF94CE720463EF005FD00288A
